{
  "_format": "hh-sol-artifact-1",
  "contractName": "MyToken",
  "sourceName": "contracts/MyToken.sol",
  "abi": [
    {
      "inputs": [],
      "stateMutability": "nonpayable",
      "type": "constructor"
    },
    {
      "anonymous": false,
      "inputs": [
        {
          "indexed": true,
          "internalType": "address",
          "name": "from",
          "type": "address"
        },
        {
          "indexed": true,
          "internalType": "address",
          "name": "to",
          "type": "address"
        },
        {
          "indexed": false,
          "internalType": "uint256",
          "name": "value",
          "type": "uint256"
        }
      ],
      "name": "Transfer",
      "type": "event"
    },
    {
      "inputs": [
        {
          "internalType": "address",
          "name": "",
          "type": "address"
        }
      ],
      "name": "balanceOf",
      "outputs": [
        {
          "internalType": "uint256",
          "name": "",
          "type": "uint256"
        }
      ],
      "stateMutability": "view",
      "type": "function"
    },
    {
      "inputs": [],
      "name": "decimals",
      "outputs": [
        {
          "internalType": "uint8",
          "name": "",
          "type": "uint8"
        }
      ],
      "stateMutability": "view",
      "type": "function"
    },
    {
      "inputs": [
        {
          "internalType": "address",
          "name": "to",
          "type": "address"
        },
        {
          "internalType": "uint256",
          "name": "amount",
          "type": "uint256"
        }
      ],
      "name": "mint",
      "outputs": [],
      "stateMutability": "nonpayable",
      "type": "function"
    },
    {
      "inputs": [],
      "name": "name",
      "outputs": [
        {
          "internalType": "string",
          "name": "",
          "type": "string"
        }
      ],
      "stateMutability": "view",
      "type": "function"
    },
    {
      "inputs": [],
      "name": "owner",
      "outputs": [
        {
          "internalType": "address",
          "name": "",
          "type": "address"
        }
      ],
      "stateMutability": "view",
      "type": "function"
    },
    {
      "inputs": [],
      "name": "symbol",
      "outputs": [
        {
          "internalType": "string",
          "name": "",
          "type": "string"
        }
      ],
      "stateMutability": "view",
      "type": "function"
    },
    {
      "inputs": [],
      "name": "totalSupply",
      "outputs": [
        {
          "internalType": "uint256",
          "name": "",
          "type": "uint256"
        }
      ],
      "stateMutability": "view",
      "type": "function"
    },
    {
      "inputs": [
        {
          "internalType": "address",
          "name": "to",
          "type": "address"
        },
        {
          "internalType": "uint256",
          "name": "amount",
          "type": "uint256"
        }
      ],
      "name": "transfer",
      "outputs": [
        {
          "internalType": "bool",
          "name": "",
          "type": "bool"
        }
      ],
      "stateMutability": "nonpayable",
      "type": "function"
    }
  ],
  "bytecode": "0x60806040526040518060400160405280600a81526020017f44656d6f20546f6b656e000000000000000000000000000000000000000000008152506000908161004891906103c5565b506040518060400160405280600381526020017f44544b00000000000000000000000000000000000000000000000000000000008152506001908161008d91906103c5565b506012600260006101000a81548160ff021916908360ff1602179055503480156100b657600080fd5b5033600560006101000a81548173ffffffffffffffffffffffffffffffffffffffff021916908373ffffffffffffffffffffffffffffffffffffffff160217905550600260009054906101000a900460ff1660ff16600a61011791906105f9565b6103e86101249190610644565b600381905550600354600460003373ffffffffffffffffffffffffffffffffffffffff1673ffffffffffffffffffffffffffffffffffffffff16815260200190815260200160002081905550610686565b600081519050919050565b7f4e487b7100000000000000000000000000000000000000000000000000000000600052604160045260246000fd5b7f4e487b7100000000000000000000000000000000000000000000000000000000600052602260045260246000fd5b600060028204905060018216806101f657607f821691505b602082108103610209576102086101af565b5b50919050565b60008190508160005260206000209050919050565b60006020601f8301049050919050565b600082821b905092915050565b6000600883026102717fffffffffffffffffffffffffffffffffffffffffffffffffffffffffffffffff82610234565b61027b8683610234565b95508019841693508086168417925050509392505050565b6000819050919050565b6000819050919050565b60006102c26102bd6102b884610293565b61029d565b610293565b9050919050565b6000819050919050565b6102dc836102a7565b6102f06102e8826102c9565b848454610241565b825550505050565b600090565b6103056102f8565b6103108184846102d3565b505050565b5b81811015610334576103296000826102fd565b600181019050610316565b5050565b601f8211156103795761034a8161020f565b61035384610224565b81016020851015610362578190505b61037661036e85610224565b830182610315565b50505b505050565b600082821c905092915050565b600061039c6000198460080261037e565b1980831691505092915050565b60006103b5838361038b565b9150826002028217905092915050565b6103ce82610175565b67ffffffffffffffff8111156103e7576103e6610180565b5b6103f182546101de565b6103fc828285610338565b600060209050601f83116001811461042f576000841561041d578287015190505b61042785826103a9565b86555061048f565b601f19841661043d8661020f565b60005b8281101561046557848901518255600182019150602085019450602081019050610440565b86831015610482578489015161047e601f89168261038b565b8355505b6001600288020188555050505b505050505050565b7f4e487b7100000000000000000000000000000000000000000000000000000000600052601160045260246000fd5b60008160011c9050919050565b6000808291508390505b600185111561051d578086048111156104f9576104f8610497565b5b60018516156105085780820291505b8081029050610516856104c6565b94506104dd565b94509492505050565b60008261053657600190506105f2565b8161054457600090506105f2565b816001811461055a576002811461056457610593565b60019150506105f2565b60ff84111561057657610575610497565b5b8360020a91508482111561058d5761058c610497565b5b506105f2565b5060208310610133831016604e8410600b84101617156105c85782820a9050838111156105c3576105c2610497565b5b6105f2565b6105d584848460016104d3565b925090508184048111156105ec576105eb610497565b5b81810290505b9392505050565b600061060482610293565b915061060f83610293565b925061063c7fffffffffffffffffffffffffffffffffffffffffffffffffffffffffffffffff8484610526565b905092915050565b600061064f82610293565b915061065a83610293565b925082820261066881610293565b9150828204841483151761067f5761067e610497565b5b5092915050565b610b99806106956000396000f3fe608060405234801561001057600080fd5b50600436106100885760003560e01c806370a082311161005b57806370a08231146101035780638da5cb5b1461013357806395d89b4114610151578063a9059cbb1461016f57610088565b806306fdde031461008d57806318160ddd146100ab578063313ce567146100c957806340c10f19146100e7575b600080fd5b61009561019f565b6040516100a29190610719565b60405180910390f35b6100b361022d565b6040516100c09190610754565b60405180910390f35b6100d1610233565b6040516100de919061078b565b60405180910390f35b61010160048036038101906100fc9190610835565b610246565b005b61011d60048036038101906101189190610875565b61041e565b60405161012a9190610754565b60405180910390f35b61013b610436565b60405161014891906108b1565b60405180910390f35b61015961045c565b6040516101669190610719565b60405180910390f35b61018960048036038101906101849190610835565b6104ea565b60405161019691906108e7565b60405180910390f35b600080546101ac90610931565b80601f01602080910402602001604051908101604052809291908181526020018280546101d890610931565b80156102255780601f106101fa57610100808354040283529160200191610225565b820191906000526020600020905b81548152906001019060200180831161020857829003601f168201915b505050505081565b60035481565b600260009054906101000a900460ff1681565b600560009054906101000a900473ffffffffffffffffffffffffffffffffffffffff1673ffffffffffffffffffffffffffffffffffffffff163373ffffffffffffffffffffffffffffffffffffffff16146102d6576040517f08c379a00000000000000000000000000000000000000000000000000000000081526004016102cd906109d4565b60405180910390fd5b600073ffffffffffffffffffffffffffffffffffffffff168273ffffffffffffffffffffffffffffffffffffffff1603610345576040517f08c379a000000000000000000000000000000000000000000000000000000000815260040161033c90610a40565b60405180910390fd5b80600460008473ffffffffffffffffffffffffffffffffffffffff1673ffffffffffffffffffffffffffffffffffffffff16815260200190815260200160002060008282546103949190610a8f565b9250508190555080600360008282546103ad9190610a8f565b925050819055508173ffffffffffffffffffffffffffffffffffffffff16600073ffffffffffffffffffffffffffffffffffffffff167fddf252ad1be2c89b69c2b068fc378daa952ba7f163c4a11628f55a4df523b3ef836040516104129190610754565b60405180910390a35050565b60046020528060005260406000206000915090505481565b600560009054906101000a900473ffffffffffffffffffffffffffffffffffffffff1681565b6001805461046990610931565b80601f016020809104026020016040519081016040528092919081815260200182805461049590610931565b80156104e25780601f106104b7576101008083540402835291602001916104e2565b820191906000526020600020905b8154815290600101906020018083116104c557829003601f168201915b505050505081565b600081600460003373ffffffffffffffffffffffffffffffffffffffff1673ffffffffffffffffffffffffffffffffffffffff16815260200190815260200160002054101561056e576040517f08c379a000000000000000000000000000000000000000000000000000000000815260040161056590610b0f565b60405180910390fd5b81600460003373ffffffffffffffffffffffffffffffffffffffff1673ffffffffffffffffffffffffffffffffffffffff16815260200190815260200160002060008282546105bd9190610b2f565b9250508190555081600460008573ffffffffffffffffffffffffffffffffffffffff1673ffffffffffffffffffffffffffffffffffffffff16815260200190815260200160002060008282546106139190610a8f565b925050819055508273ffffffffffffffffffffffffffffffffffffffff163373ffffffffffffffffffffffffffffffffffffffff167fddf252ad1be2c89b69c2b068fc378daa952ba7f163c4a11628f55a4df523b3ef846040516106779190610754565b60405180910390a36001905092915050565b600081519050919050565b600082825260208201905092915050565b60005b838110156106c35780820151818401526020810190506106a8565b60008484015250505050565b6000601f19601f8301169050919050565b60006106eb82610689565b6106f58185610694565b93506107058185602086016106a5565b61070e816106cf565b840191505092915050565b6000602082019050818103600083015261073381846106e0565b905092915050565b6000819050919050565b61074e8161073b565b82525050565b60006020820190506107696000830184610745565b92915050565b600060ff82169050919050565b6107858161076f565b82525050565b60006020820190506107a0600083018461077c565b92915050565b600080fd5b600073ffffffffffffffffffffffffffffffffffffffff82169050919050565b60006107d6826107ab565b9050919050565b6107e6816107cb565b81146107f157600080fd5b50565b600081359050610803816107dd565b92915050565b6108128161073b565b811461081d57600080fd5b50565b60008135905061082f81610809565b92915050565b6000806040838503121561084c5761084b6107a6565b5b600061085a858286016107f4565b925050602061086b85828601610820565b9150509250929050565b60006020828403121561088b5761088a6107a6565b5b6000610899848285016107f4565b91505092915050565b6108ab816107cb565b82525050565b60006020820190506108c660008301846108a2565b92915050565b60008115159050919050565b6108e1816108cc565b82525050565b60006020820190506108fc60008301846108d8565b92915050565b7f4e487b7100000000000000000000000000000000000000000000000000000000600052602260045260246000fd5b6000600282049050600182168061094957607f821691505b60208210810361095c5761095b610902565b5b50919050565b7f4f6e6c79206f776e65722063616e2063616c6c20746869732066756e6374696f60008201527f6e00000000000000000000000000000000000000000000000000000000000000602082015250565b60006109be602183610694565b91506109c982610962565b604082019050919050565b600060208201905081810360008301526109ed816109b1565b9050919050565b7f43616e6e6f74206d696e7420746f207a65726f20616464726573730000000000600082015250565b6000610a2a601b83610694565b9150610a35826109f4565b602082019050919050565b60006020820190508181036000830152610a5981610a1d565b9050919050565b7f4e487b7100000000000000000000000000000000000000000000000000000000600052601160045260246000fd5b6000610a9a8261073b565b9150610aa58361073b565b9250828201905080821115610abd57610abc610a60565b5b92915050565b7f496e73756666696369656e742062616c616e6365000000000000000000000000600082015250565b6000610af9601483610694565b9150610b0482610ac3565b602082019050919050565b60006020820190508181036000830152610b2881610aec565b9050919050565b6000610b3a8261073b565b9150610b458361073b565b9250828203905081811115610b5d57610b5c610a60565b5b9291505056fea2646970667358221220815e0ed95465e777af234853744dc4c3d9e9c6700b72bd0b5e7e785d427819c664736f6c634300081c0033",
  "linkReferences": {},
  "deployedLinkReferences": {}
}