{
  "_format": "hh-sol-artifact-1",
  "contractName": "MyToken",
  "sourceName": "contracts/MyToken.sol",
  "abi": [
    {
      "inputs": [],
      "stateMutability": "nonpayable",
      "type": "constructor"
    },
    {
      "inputs": [],
      "name": "ECDSAInvalidSignature",
      "type": "error"
    },
    {
      "inputs": [
        {
          "internalType": "uint256",
          "name": "length",
          "type": "uint256"
        }
      ],
      "name": "ECDSAInvalidSignatureLength",
      "type": "error"
    },
    {
      "inputs": [
        {
          "internalType": "bytes32",
          "name": "s",
          "type": "bytes32"
        }
      ],
      "name": "ECDSAInvalidSignatureS",
      "type": "error"
    },
    {
      "anonymous": false,
      "inputs": [
        {
          "indexed": true,
          "internalType": "address",
          "name": "owner",
          "type": "address"
        },
        {
          "indexed": true,
          "internalType": "address",
          "name": "spender",
          "type": "address"
        },
        {
          "indexed": false,
          "internalType": "uint256",
          "name": "value",
          "type": "uint256"
        }
      ],
      "name": "Approval",
      "type": "event"
    },
    {
      "anonymous": false,
      "inputs": [
        {
          "indexed": true,
          "internalType": "address",
          "name": "from",
          "type": "address"
        },
        {
          "indexed": true,
          "internalType": "address",
          "name": "to",
          "type": "address"
        },
        {
          "indexed": false,
          "internalType": "uint256",
          "name": "value",
          "type": "uint256"
        }
      ],
      "name": "Transfer",
      "type": "event"
    },
    {
      "inputs": [],
      "name": "DOMAIN_SEPARATOR",
      "outputs": [
        {
          "internalType": "bytes32",
          "name": "",
          "type": "bytes32"
        }
      ],
      "stateMutability": "view",
      "type": "function"
    },
    {
      "inputs": [],
      "name": "TRANSFER_TYPEHASH",
      "outputs": [
        {
          "internalType": "bytes32",
          "name": "",
          "type": "bytes32"
        }
      ],
      "stateMutability": "view",
      "type": "function"
    },
    {
      "inputs": [],
      "name": "VERSION",
      "outputs": [
        {
          "internalType": "string",
          "name": "",
          "type": "string"
        }
      ],
      "stateMutability": "view",
      "type": "function"
    },
    {
      "inputs": [
        {
          "internalType": "address",
          "name": "",
          "type": "address"
        },
        {
          "internalType": "address",
          "name": "",
          "type": "address"
        }
      ],
      "name": "allowance",
      "outputs": [
        {
          "internalType": "uint256",
          "name": "",
          "type": "uint256"
        }
      ],
      "stateMutability": "view",
      "type": "function"
    },
    {
      "inputs": [
        {
          "internalType": "address",
          "name": "spender",
          "type": "address"
        },
        {
          "internalType": "uint256",
          "name": "amount",
          "type": "uint256"
        }
      ],
      "name": "approve",
      "outputs": [
        {
          "internalType": "bool",
          "name": "",
          "type": "bool"
        }
      ],
      "stateMutability": "nonpayable",
      "type": "function"
    },
    {
      "inputs": [
        {
          "internalType": "address",
          "name": "",
          "type": "address"
        }
      ],
      "name": "balanceOf",
      "outputs": [
        {
          "internalType": "uint256",
          "name": "",
          "type": "uint256"
        }
      ],
      "stateMutability": "view",
      "type": "function"
    },
    {
      "inputs": [],
      "name": "decimals",
      "outputs": [
        {
          "internalType": "uint8",
          "name": "",
          "type": "uint8"
        }
      ],
      "stateMutability": "view",
      "type": "function"
    },
    {
      "inputs": [
        {
          "internalType": "address",
          "name": "to",
          "type": "address"
        },
        {
          "internalType": "uint256",
          "name": "amount",
          "type": "uint256"
        }
      ],
      "name": "mint",
      "outputs": [],
      "stateMutability": "nonpayable",
      "type": "function"
    },
    {
      "inputs": [],
      "name": "name",
      "outputs": [
        {
          "internalType": "string",
          "name": "",
          "type": "string"
        }
      ],
      "stateMutability": "view",
      "type": "function"
    },
    {
      "inputs": [
        {
          "internalType": "address",
          "name": "",
          "type": "address"
        }
      ],
      "name": "nonces",
      "outputs": [
        {
          "internalType": "uint256",
          "name": "",
          "type": "uint256"
        }
      ],
      "stateMutability": "view",
      "type": "function"
    },
    {
      "inputs": [],
      "name": "owner",
      "outputs": [
        {
          "internalType": "address",
          "name": "",
          "type": "address"
        }
      ],
      "stateMutability": "view",
      "type": "function"
    },
    {
      "inputs": [],
      "name": "symbol",
      "outputs": [
        {
          "internalType": "string",
          "name": "",
          "type": "string"
        }
      ],
      "stateMutability": "view",
      "type": "function"
    },
    {
      "inputs": [],
      "name": "totalSupply",
      "outputs": [
        {
          "internalType": "uint256",
          "name": "",
          "type": "uint256"
        }
      ],
      "stateMutability": "view",
      "type": "function"
    },
    {
      "inputs": [
        {
          "internalType": "address",
          "name": "to",
          "type": "address"
        },
        {
          "internalType": "uint256",
          "name": "amount",
          "type": "uint256"
        }
      ],
      "name": "transfer",
      "outputs": [
        {
          "internalType": "bool",
          "name": "",
          "type": "bool"
        }
      ],
      "stateMutability": "nonpayable",
      "type": "function"
    },
    {
      "inputs": [
        {
          "internalType": "address",
          "name": "from",
          "type": "address"
        },
        {
          "internalType": "address",
          "name": "to",
          "type": "address"
        },
        {
          "internalType": "uint256",
          "name": "amount",
          "type": "uint256"
        }
      ],
      "name": "transferFrom",
      "outputs": [
        {
          "internalType": "bool",
          "name": "",
          "type": "bool"
        }
      ],
      "stateMutability": "nonpayable",
      "type": "function"
    },
    {
      "inputs": [
        {
          "internalType": "address",
          "name": "from",
          "type": "address"
        },
        {
          "internalType": "address",
          "name": "to",
          "type": "address"
        },
        {
          "internalType": "uint256",
          "name": "amount",
          "type": "uint256"
        },
        {
          "internalType": "uint256",
          "name": "deadline",
          "type": "uint256"
        },
        {
          "internalType": "bytes",
          "name": "signature",
          "type": "bytes"
        }
      ],
      "name": "transferWithSig",
      "outputs": [],
      "stateMutability": "nonpayable",
      "type": "function"
    },
    {
      "inputs": [
        {
          "internalType": "address",
          "name": "from",
          "type": "address"
        },
        {
          "internalType": "address",
          "name": "to",
          "type": "address"
        },
        {
          "internalType": "uint256",
          "name": "amount",
          "type": "uint256"
        },
        {
          "internalType": "uint256",
          "name": "nonce",
          "type": "uint256"
        },
        {
          "internalType": "uint256",
          "name": "deadline",
          "type": "uint256"
        },
        {
          "internalType": "bytes",
          "name": "signature",
          "type": "bytes"
        }
      ],
      "name": "verifySignature",
      "outputs": [
        {
          "internalType": "address",
          "name": "",
          "type": "address"
        }
      ],
      "stateMutability": "view",
      "type": "function"
    }
  ],
  "bytecode": "0x60806040526040518060400160405280600a81526020017f44656d6f20546f6b656e00000000000000000000000000000000000000000000815250600090816100489190610615565b506040518060400160405280600381526020017f44544b00000000000000000000000000000000000000000000000000000000008152506001908161008d9190610615565b506012600260006101000a81548160ff021916908360ff1602179055503480156100b657600080fd5b5033600760006101000a81548173ffffffffffffffffffffffffffffffffffffffff021916908373ffffffffffffffffffffffffffffffffffffffff160217905550600060038190555061013b33600260009054906101000a900460ff1660ff16600a6101239190610849565b6103e86101309190610894565b6101ed60201b60201c565b60004690507f8b73c3c69bb8fe3d512ecc4cf759cc79239f7b179b0ffacaa9a75d522b39400f60006040516101709190610979565b60405180910390206040518060400160405280600181526020017f31000000000000000000000000000000000000000000000000000000000000008152508051906020012083306040516020016101cb9594939291906109f9565b6040516020818303038152906040528051906020012060088190555050610baa565b600760009054906101000a900473ffffffffffffffffffffffffffffffffffffffff1673ffffffffffffffffffffffffffffffffffffffff163373ffffffffffffffffffffffffffffffffffffffff161461027d576040517f08c379a000000000000000000000000000000000000000000000000000000000815260040161027490610acf565b60405180910390fd5b600073ffffffffffffffffffffffffffffffffffffffff168273ffffffffffffffffffffffffffffffffffffffff16036102ec576040517f08c379a00000000000000000000000000000000000000000000000000000000081526004016102e390610b3b565b60405180910390fd5b80600460008473ffffffffffffffffffffffffffffffffffffffff1673ffffffffffffffffffffffffffffffffffffffff168152602001908152602001600020600082825461033b9190610b5b565b9250508190555080600360008282546103549190610b5b565b925050819055508173ffffffffffffffffffffffffffffffffffffffff16600073ffffffffffffffffffffffffffffffffffffffff167fddf252ad1be2c89b69c2b068fc378daa952ba7f163c4a11628f55a4df523b3ef836040516103b99190610b8f565b60405180910390a35050565b600081519050919050565b7f4e487b7100000000000000000000000000000000000000000000000000000000600052604160045260246000fd5b7f4e487b7100000000000000000000000000000000000000000000000000000000600052602260045260246000fd5b6000600282049050600182168061044657607f821691505b602082108103610459576104586103ff565b5b50919050565b60008190508160005260206000209050919050565b60006020601f8301049050919050565b600082821b905092915050565b6000600883026104c17fffffffffffffffffffffffffffffffffffffffffffffffffffffffffffffffff82610484565b6104cb8683610484565b95508019841693508086168417925050509392505050565b6000819050919050565b6000819050919050565b600061051261050d610508846104e3565b6104ed565b6104e3565b9050919050565b6000819050919050565b61052c836104f7565b61054061053882610519565b848454610491565b825550505050565b600090565b610555610548565b610560818484610523565b505050565b5b818110156105845761057960008261054d565b600181019050610566565b5050565b601f8211156105c95761059a8161045f565b6105a384610474565b810160208510156105b2578190505b6105c66105be85610474565b830182610565565b50505b505050565b600082821c905092915050565b60006105ec600019846008026105ce565b1980831691505092915050565b600061060583836105db565b9150826002028217905092915050565b61061e826103c5565b67ffffffffffffffff811115610637576106366103d0565b5b610641825461042e565b61064c828285610588565b600060209050601f83116001811461067f576000841561066d578287015190505b61067785826105f9565b8655506106df565b601f19841661068d8661045f565b60005b828110156106b557848901518255600182019150602085019450602081019050610690565b868310156106d257848901516106ce601f8916826105db565b8355505b6001600288020188555050505b505050505050565b7f4e487b7100000000000000000000000000000000000000000000000000000000600052601160045260246000fd5b60008160011c9050919050565b6000808291508390505b600185111561076d57808604811115610749576107486106e7565b5b60018516156107585780820291505b808102905061076685610716565b945061072d565b94509492505050565b6000826107865760019050610842565b816107945760009050610842565b81600181146107aa57600281146107b4576107e3565b6001915050610842565b60ff8411156107c6576107c56106e7565b5b8360020a9150848211156107dd576107dc6106e7565b5b50610842565b5060208310610133831016604e8410600b84101617156108185782820a905083811115610813576108126106e7565b5b610842565b6108258484846001610723565b9250905081840481111561083c5761083b6106e7565b5b81810290505b9392505050565b6000610854826104e3565b915061085f836104e3565b925061088c7fffffffffffffffffffffffffffffffffffffffffffffffffffffffffffffffff8484610776565b905092915050565b600061089f826104e3565b91506108aa836104e3565b92508282026108b8816104e3565b915082820484148315176108cf576108ce6106e7565b5b5092915050565b600081905092915050565b60008190508160005260206000209050919050565b600081546109038161042e565b61090d81866108d6565b94506001821660008114610928576001811461093d57610970565b60ff1983168652811515820286019350610970565b610946856108e1565b60005b8381101561096857815481890152600182019150602081019050610949565b838801955050505b50505092915050565b600061098582846108f6565b915081905092915050565b6000819050919050565b6109a381610990565b82525050565b6109b2816104e3565b82525050565b600073ffffffffffffffffffffffffffffffffffffffff82169050919050565b60006109e3826109b8565b9050919050565b6109f3816109d8565b82525050565b600060a082019050610a0e600083018861099a565b610a1b602083018761099a565b610a28604083018661099a565b610a3560608301856109a9565b610a4260808301846109ea565b9695505050505050565b600082825260208201905092915050565b7f4f6e6c79206f776e65722063616e2063616c6c20746869732066756e6374696f60008201527f6e00000000000000000000000000000000000000000000000000000000000000602082015250565b6000610ab9602183610a4c565b9150610ac482610a5d565b604082019050919050565b60006020820190508181036000830152610ae881610aac565b9050919050565b7f43616e6e6f74206d696e7420746f207a65726f20616464726573730000000000600082015250565b6000610b25601b83610a4c565b9150610b3082610aef565b602082019050919050565b60006020820190508181036000830152610b5481610b18565b9050919050565b6000610b66826104e3565b9150610b71836104e3565b9250828201905080821115610b8957610b886106e7565b5b92915050565b6000602082019050610ba460008301846109a9565b92915050565b6121c580610bb96000396000f3fe608060405234801561001057600080fd5b506004361061010a5760003560e01c806344e8ad9a116100a257806395d89b411161007157806395d89b41146102cf578063a9059cbb146102ed578063cc164e451461031d578063dd62ed3e14610339578063ffa1ad74146103695761010a565b806344e8ad9a1461022157806370a08231146102515780637ecebe00146102815780638da5cb5b146102b15761010a565b806323b872dd116100de57806323b872dd14610199578063313ce567146101c95780633644e515146101e757806340c10f19146102055761010a565b8062bf26f41461010f57806306fdde031461012d578063095ea7b31461014b57806318160ddd1461017b575b600080fd5b610117610387565b6040516101249190611535565b60405180910390f35b6101356103ab565b60405161014291906115e0565b60405180910390f35b610165600480360381019061016091906116aa565b610439565b6040516101729190611705565b60405180910390f35b61018361052b565b604051610190919061172f565b60405180910390f35b6101b360048036038101906101ae919061174a565b610531565b6040516101c09190611705565b60405180910390f35b6101d1610891565b6040516101de91906117b9565b60405180910390f35b6101ef6108a4565b6040516101fc9190611535565b60405180910390f35b61021f600480360381019061021a91906116aa565b6108aa565b005b61023b60048036038101906102369190611839565b610a82565b60405161024891906118f7565b60405180910390f35b61026b60048036038101906102669190611912565b610bb1565b604051610278919061172f565b60405180910390f35b61029b60048036038101906102969190611912565b610bc9565b6040516102a8919061172f565b60405180910390f35b6102b9610be1565b6040516102c691906118f7565b60405180910390f35b6102d7610c07565b6040516102e491906115e0565b60405180910390f35b610307600480360381019061030291906116aa565b610c95565b6040516103149190611705565b60405180910390f35b61033760048036038101906103329190611a6f565b610ea2565b005b610353600480360381019061034e9190611b06565b6111de565b604051610360919061172f565b60405180910390f35b610371611203565b60405161037e91906115e0565b60405180910390f35b7f4144f681a2e4d6d2035dcbc0720f95d08cc1779083c71290e8a4bb4c1529f59e81565b600080546103b890611b75565b80601f01602080910402602001604051908101604052809291908181526020018280546103e490611b75565b80156104315780601f1061040657610100808354040283529160200191610431565b820191906000526020600020905b81548152906001019060200180831161041457829003601f168201915b505050505081565b600081600560003373ffffffffffffffffffffffffffffffffffffffff1673ffffffffffffffffffffffffffffffffffffffff16815260200190815260200160002060008573ffffffffffffffffffffffffffffffffffffffff1673ffffffffffffffffffffffffffffffffffffffff168152602001908152602001600020819055508273ffffffffffffffffffffffffffffffffffffffff163373ffffffffffffffffffffffffffffffffffffffff167f8c5be1e5ebec7d5bd14f71427d1e84f3dd0314c0f7b2291e5b200ac8c7c3b92584604051610519919061172f565b60405180910390a36001905092915050565b60035481565b60008073ffffffffffffffffffffffffffffffffffffffff168373ffffffffffffffffffffffffffffffffffffffff16036105a1576040517f08c379a000000000000000000000000000000000000000000000000000000000815260040161059890611bf2565b60405180910390fd5b81600460008673ffffffffffffffffffffffffffffffffffffffff1673ffffffffffffffffffffffffffffffffffffffff168152602001908152602001600020541015610623576040517f08c379a000000000000000000000000000000000000000000000000000000000815260040161061a90611c5e565b60405180910390fd5b81600560008673ffffffffffffffffffffffffffffffffffffffff1673ffffffffffffffffffffffffffffffffffffffff16815260200190815260200160002060003373ffffffffffffffffffffffffffffffffffffffff1673ffffffffffffffffffffffffffffffffffffffff1681526020019081526020016000205410156106e2576040517f08c379a00000000000000000000000000000000000000000000000000000000081526004016106d990611cca565b60405180910390fd5b81600560008673ffffffffffffffffffffffffffffffffffffffff1673ffffffffffffffffffffffffffffffffffffffff16815260200190815260200160002060003373ffffffffffffffffffffffffffffffffffffffff1673ffffffffffffffffffffffffffffffffffffffff168152602001908152602001600020600082825461076e9190611d19565b9250508190555081600460008673ffffffffffffffffffffffffffffffffffffffff1673ffffffffffffffffffffffffffffffffffffffff16815260200190815260200160002060008282546107c49190611d19565b9250508190555081600460008573ffffffffffffffffffffffffffffffffffffffff1673ffffffffffffffffffffffffffffffffffffffff168152602001908152602001600020600082825461081a9190611d4d565b925050819055508273ffffffffffffffffffffffffffffffffffffffff168473ffffffffffffffffffffffffffffffffffffffff167fddf252ad1be2c89b69c2b068fc378daa952ba7f163c4a11628f55a4df523b3ef8460405161087e919061172f565b60405180910390a3600190509392505050565b600260009054906101000a900460ff1681565b60085481565b600760009054906101000a900473ffffffffffffffffffffffffffffffffffffffff1673ffffffffffffffffffffffffffffffffffffffff163373ffffffffffffffffffffffffffffffffffffffff161461093a576040517f08c379a000000000000000000000000000000000000000000000000000000000815260040161093190611df3565b60405180910390fd5b600073ffffffffffffffffffffffffffffffffffffffff168273ffffffffffffffffffffffffffffffffffffffff16036109a9576040517f08c379a00000000000000000000000000000000000000000000000000000000081526004016109a090611e5f565b60405180910390fd5b80600460008473ffffffffffffffffffffffffffffffffffffffff1673ffffffffffffffffffffffffffffffffffffffff16815260200190815260200160002060008282546109f89190611d4d565b925050819055508060036000828254610a119190611d4d565b925050819055508173ffffffffffffffffffffffffffffffffffffffff16600073ffffffffffffffffffffffffffffffffffffffff167fddf252ad1be2c89b69c2b068fc378daa952ba7f163c4a11628f55a4df523b3ef83604051610a76919061172f565b60405180910390a35050565b600083421115610ac7576040517f08c379a0000000000000000000000000000000000000000000000000000000008152600401610abe90611ecb565b60405180910390fd5b60007f4144f681a2e4d6d2035dcbc0720f95d08cc1779083c71290e8a4bb4c1529f59e8989898989604051602001610b0496959493929190611eeb565b604051602081830303815290604052805190602001209050600060085482604051602001610b33929190611fc4565b604051602081830303815290604052805190602001209050610ba285858080601f016020809104026020016040519081016040528093929190818152602001838380828437600081840152601f19601f820116905080830192505050505050508261123c90919063ffffffff16565b92505050979650505050505050565b60046020528060005260406000206000915090505481565b60066020528060005260406000206000915090505481565b600760009054906101000a900473ffffffffffffffffffffffffffffffffffffffff1681565b60018054610c1490611b75565b80601f0160208091040260200160405190810160405280929190818152602001828054610c4090611b75565b8015610c8d5780601f10610c6257610100808354040283529160200191610c8d565b820191906000526020600020905b815481529060010190602001808311610c7057829003601f168201915b505050505081565b60008073ffffffffffffffffffffffffffffffffffffffff168373ffffffffffffffffffffffffffffffffffffffff1603610d05576040517f08c379a0000000000000000000000000000000000000000000000000000000008152600401610cfc90611bf2565b60405180910390fd5b81600460003373ffffffffffffffffffffffffffffffffffffffff1673ffffffffffffffffffffffffffffffffffffffff168152602001908152602001600020541015610d87576040517f08c379a0000000000000000000000000000000000000000000000000000000008152600401610d7e90611c5e565b60405180910390fd5b81600460003373ffffffffffffffffffffffffffffffffffffffff1673ffffffffffffffffffffffffffffffffffffffff1681526020019081526020016000206000828254610dd69190611d19565b9250508190555081600460008573ffffffffffffffffffffffffffffffffffffffff1673ffffffffffffffffffffffffffffffffffffffff1681526020019081526020016000206000828254610e2c9190611d4d565b925050819055508273ffffffffffffffffffffffffffffffffffffffff163373ffffffffffffffffffffffffffffffffffffffff167fddf252ad1be2c89b69c2b068fc378daa952ba7f163c4a11628f55a4df523b3ef84604051610e90919061172f565b60405180910390a36001905092915050565b81421115610ee5576040517f08c379a0000000000000000000000000000000000000000000000000000000008152600401610edc90612047565b60405180910390fd5b60007f4144f681a2e4d6d2035dcbc0720f95d08cc1779083c71290e8a4bb4c1529f59e868686600660008b73ffffffffffffffffffffffffffffffffffffffff1673ffffffffffffffffffffffffffffffffffffffff1681526020019081526020016000206000815480929190610f5b90612067565b9190505587604051602001610f7596959493929190611eeb565b604051602081830303815290604052805190602001209050600060085482604051602001610fa4929190611fc4565b6040516020818303038152906040528051906020012090506000610fd1848361123c90919063ffffffff16565b90508773ffffffffffffffffffffffffffffffffffffffff168173ffffffffffffffffffffffffffffffffffffffff1614611041576040517f08c379a0000000000000000000000000000000000000000000000000000000008152600401611038906120fb565b60405180910390fd5b85600460008a73ffffffffffffffffffffffffffffffffffffffff1673ffffffffffffffffffffffffffffffffffffffff1681526020019081526020016000205410156110c3576040517f08c379a00000000000000000000000000000000000000000000000000000000081526004016110ba90611c5e565b60405180910390fd5b85600460008a73ffffffffffffffffffffffffffffffffffffffff1673ffffffffffffffffffffffffffffffffffffffff16815260200190815260200160002060008282546111129190611d19565b9250508190555085600460008973ffffffffffffffffffffffffffffffffffffffff1673ffffffffffffffffffffffffffffffffffffffff16815260200190815260200160002060008282546111689190611d4d565b925050819055508673ffffffffffffffffffffffffffffffffffffffff168873ffffffffffffffffffffffffffffffffffffffff167fddf252ad1be2c89b69c2b068fc378daa952ba7f163c4a11628f55a4df523b3ef886040516111cc919061172f565b60405180910390a35050505050505050565b6005602052816000526040600020602052806000526040600020600091509150505481565b6040518060400160405280600181526020017f310000000000000000000000000000000000000000000000000000000000000081525081565b60008060008061124c8686611268565b92509250925061125c82826112c4565b82935050505092915050565b600080600060418451036112ad5760008060006020870151925060408701519150606087015160001a905061129f88828585611428565b9550955095505050506112bd565b60006002855160001b9250925092505b9250925092565b600060038111156112d8576112d761211b565b5b8260038111156112eb576112ea61211b565b5b031561142457600160038111156113055761130461211b565b5b8260038111156113185761131761211b565b5b0361134f576040517ff645eedf00000000000000000000000000000000000000000000000000000000815260040160405180910390fd5b600260038111156113635761136261211b565b5b8260038111156113765761137561211b565b5b036113bb578060001c6040517ffce698f70000000000000000000000000000000000000000000000000000000081526004016113b2919061172f565b60405180910390fd5b6003808111156113ce576113cd61211b565b5b8260038111156113e1576113e061211b565b5b0361142357806040517fd78bce0c00000000000000000000000000000000000000000000000000000000815260040161141a9190611535565b60405180910390fd5b5b5050565b60008060007f7fffffffffffffffffffffffffffffff5d576e7357a4501ddfe92f46681b20a08460001c1115611468576000600385925092509250611512565b60006001888888886040516000815260200160405260405161148d949392919061214a565b6020604051602081039080840390855afa1580156114af573d6000803e3d6000fd5b505050602060405103519050600073ffffffffffffffffffffffffffffffffffffffff168173ffffffffffffffffffffffffffffffffffffffff160361150357600060016000801b93509350935050611512565b8060008060001b935093509350505b9450945094915050565b6000819050919050565b61152f8161151c565b82525050565b600060208201905061154a6000830184611526565b92915050565b600081519050919050565b600082825260208201905092915050565b60005b8381101561158a57808201518184015260208101905061156f565b60008484015250505050565b6000601f19601f8301169050919050565b60006115b282611550565b6115bc818561155b565b93506115cc81856020860161156c565b6115d581611596565b840191505092915050565b600060208201905081810360008301526115fa81846115a7565b905092915050565b6000604051905090565b600080fd5b600080fd5b600073ffffffffffffffffffffffffffffffffffffffff82169050919050565b600061164182611616565b9050919050565b61165181611636565b811461165c57600080fd5b50565b60008135905061166e81611648565b92915050565b6000819050919050565b61168781611674565b811461169257600080fd5b50565b6000813590506116a48161167e565b92915050565b600080604083850312156116c1576116c061160c565b5b60006116cf8582860161165f565b92505060206116e085828601611695565b9150509250929050565b60008115159050919050565b6116ff816116ea565b82525050565b600060208201905061171a60008301846116f6565b92915050565b61172981611674565b82525050565b60006020820190506117446000830184611720565b92915050565b6000806000606084860312156117635761176261160c565b5b60006117718682870161165f565b93505060206117828682870161165f565b925050604061179386828701611695565b9150509250925092565b600060ff82169050919050565b6117b38161179d565b82525050565b60006020820190506117ce60008301846117aa565b92915050565b600080fd5b600080fd5b600080fd5b60008083601f8401126117f9576117f86117d4565b5b8235905067ffffffffffffffff811115611816576118156117d9565b5b602083019150836001820283011115611832576118316117de565b5b9250929050565b600080600080600080600060c0888a0312156118585761185761160c565b5b60006118668a828b0161165f565b97505060206118778a828b0161165f565b96505060406118888a828b01611695565b95505060606118998a828b01611695565b94505060806118aa8a828b01611695565b93505060a088013567ffffffffffffffff8111156118cb576118ca611611565b5b6118d78a828b016117e3565b925092505092959891949750929550565b6118f181611636565b82525050565b600060208201905061190c60008301846118e8565b92915050565b6000602082840312156119285761192761160c565b5b60006119368482850161165f565b91505092915050565b600080fd5b7f4e487b7100000000000000000000000000000000000000000000000000000000600052604160045260246000fd5b61197c82611596565b810181811067ffffffffffffffff8211171561199b5761199a611944565b5b80604052505050565b60006119ae611602565b90506119ba8282611973565b919050565b600067ffffffffffffffff8211156119da576119d9611944565b5b6119e382611596565b9050602081019050919050565b82818337600083830152505050565b6000611a12611a0d846119bf565b6119a4565b905082815260208101848484011115611a2e57611a2d61193f565b5b611a398482856119f0565b509392505050565b600082601f830112611a5657611a556117d4565b5b8135611a668482602086016119ff565b91505092915050565b600080600080600060a08688031215611a8b57611a8a61160c565b5b6000611a998882890161165f565b9550506020611aaa8882890161165f565b9450506040611abb88828901611695565b9350506060611acc88828901611695565b925050608086013567ffffffffffffffff811115611aed57611aec611611565b5b611af988828901611a41565b9150509295509295909350565b60008060408385031215611b1d57611b1c61160c565b5b6000611b2b8582860161165f565b9250506020611b3c8582860161165f565b9150509250929050565b7f4e487b7100000000000000000000000000000000000000000000000000000000600052602260045260246000fd5b60006002820490506001821680611b8d57607f821691505b602082108103611ba057611b9f611b46565b5b50919050565b7f496e76616c696420726563697069656e74000000000000000000000000000000600082015250565b6000611bdc60118361155b565b9150611be782611ba6565b602082019050919050565b60006020820190508181036000830152611c0b81611bcf565b9050919050565b7f496e73756666696369656e742062616c616e6365000000000000000000000000600082015250565b6000611c4860148361155b565b9150611c5382611c12565b602082019050919050565b60006020820190508181036000830152611c7781611c3b565b9050919050565b7f416c6c6f77616e63652065786365656465640000000000000000000000000000600082015250565b6000611cb460128361155b565b9150611cbf82611c7e565b602082019050919050565b60006020820190508181036000830152611ce381611ca7565b9050919050565b7f4e487b7100000000000000000000000000000000000000000000000000000000600052601160045260246000fd5b6000611d2482611674565b9150611d2f83611674565b9250828203905081811115611d4757611d46611cea565b5b92915050565b6000611d5882611674565b9150611d6383611674565b9250828201905080821115611d7b57611d7a611cea565b5b92915050565b7f4f6e6c79206f776e65722063616e2063616c6c20746869732066756e6374696f60008201527f6e00000000000000000000000000000000000000000000000000000000000000602082015250565b6000611ddd60218361155b565b9150611de882611d81565b604082019050919050565b60006020820190508181036000830152611e0c81611dd0565b9050919050565b7f43616e6e6f74206d696e7420746f207a65726f20616464726573730000000000600082015250565b6000611e49601b8361155b565b9150611e5482611e13565b602082019050919050565b60006020820190508181036000830152611e7881611e3c565b9050919050565b7f5369676e61747572652065787069726564000000000000000000000000000000600082015250565b6000611eb560118361155b565b9150611ec082611e7f565b602082019050919050565b60006020820190508181036000830152611ee481611ea8565b9050919050565b600060c082019050611f006000830189611526565b611f0d60208301886118e8565b611f1a60408301876118e8565b611f276060830186611720565b611f346080830185611720565b611f4160a0830184611720565b979650505050505050565b600081905092915050565b7f1901000000000000000000000000000000000000000000000000000000000000600082015250565b6000611f8d600283611f4c565b9150611f9882611f57565b600282019050919050565b6000819050919050565b611fbe611fb98261151c565b611fa3565b82525050565b6000611fcf82611f80565b9150611fdb8285611fad565b602082019150611feb8284611fad565b6020820191508190509392505050565b7f4578706972656400000000000000000000000000000000000000000000000000600082015250565b600061203160078361155b565b915061203c82611ffb565b602082019050919050565b6000602082019050818103600083015261206081612024565b9050919050565b600061207282611674565b91507fffffffffffffffffffffffffffffffffffffffffffffffffffffffffffffffff82036120a4576120a3611cea565b5b600182019050919050565b7f496e76616c6964207369676e6174757265000000000000000000000000000000600082015250565b60006120e560118361155b565b91506120f0826120af565b602082019050919050565b60006020820190508181036000830152612114816120d8565b9050919050565b7f4e487b7100000000000000000000000000000000000000000000000000000000600052602160045260246000fd5b600060808201905061215f6000830187611526565b61216c60208301866117aa565b6121796040830185611526565b6121866060830184611526565b9594505050505056fea2646970667358221220d87c7345282ab209d41a5d1345c5947bbd8858bf45a103d837d862a6dc4eb22664736f6c634300081c0033",
  "linkReferences": {},
  "deployedLinkReferences": {}
}