{
  "_format": "hh-sol-artifact-1",
  "contractName": "MyToken",
  "sourceName": "contracts/MyToken.sol",
  "abi": [
    {
      "inputs": [
        {
          "internalType": "uint256",
          "name": "_cap",
          "type": "uint256"
        }
      ],
      "stateMutability": "nonpayable",
      "type": "constructor"
    },
    {
      "inputs": [],
      "name": "ECDSAInvalidSignature",
      "type": "error"
    },
    {
      "inputs": [
        {
          "internalType": "uint256",
          "name": "length",
          "type": "uint256"
        }
      ],
      "name": "ECDSAInvalidSignatureLength",
      "type": "error"
    },
    {
      "inputs": [
        {
          "internalType": "bytes32",
          "name": "s",
          "type": "bytes32"
        }
      ],
      "name": "ECDSAInvalidSignatureS",
      "type": "error"
    },
    {
      "inputs": [
        {
          "internalType": "address",
          "name": "spender",
          "type": "address"
        },
        {
          "internalType": "uint256",
          "name": "allowance",
          "type": "uint256"
        },
        {
          "internalType": "uint256",
          "name": "needed",
          "type": "uint256"
        }
      ],
      "name": "ERC20InsufficientAllowance",
      "type": "error"
    },
    {
      "inputs": [
        {
          "internalType": "address",
          "name": "sender",
          "type": "address"
        },
        {
          "internalType": "uint256",
          "name": "balance",
          "type": "uint256"
        },
        {
          "internalType": "uint256",
          "name": "needed",
          "type": "uint256"
        }
      ],
      "name": "ERC20InsufficientBalance",
      "type": "error"
    },
    {
      "inputs": [
        {
          "internalType": "address",
          "name": "approver",
          "type": "address"
        }
      ],
      "name": "ERC20InvalidApprover",
      "type": "error"
    },
    {
      "inputs": [
        {
          "internalType": "address",
          "name": "receiver",
          "type": "address"
        }
      ],
      "name": "ERC20InvalidReceiver",
      "type": "error"
    },
    {
      "inputs": [
        {
          "internalType": "address",
          "name": "sender",
          "type": "address"
        }
      ],
      "name": "ERC20InvalidSender",
      "type": "error"
    },
    {
      "inputs": [
        {
          "internalType": "address",
          "name": "spender",
          "type": "address"
        }
      ],
      "name": "ERC20InvalidSpender",
      "type": "error"
    },
    {
      "inputs": [],
      "name": "EnforcedPause",
      "type": "error"
    },
    {
      "inputs": [],
      "name": "ExpectedPause",
      "type": "error"
    },
    {
      "inputs": [
        {
          "internalType": "address",
          "name": "owner",
          "type": "address"
        }
      ],
      "name": "OwnableInvalidOwner",
      "type": "error"
    },
    {
      "inputs": [
        {
          "internalType": "address",
          "name": "account",
          "type": "address"
        }
      ],
      "name": "OwnableUnauthorizedAccount",
      "type": "error"
    },
    {
      "anonymous": false,
      "inputs": [
        {
          "indexed": true,
          "internalType": "address",
          "name": "owner",
          "type": "address"
        },
        {
          "indexed": true,
          "internalType": "address",
          "name": "spender",
          "type": "address"
        },
        {
          "indexed": false,
          "internalType": "uint256",
          "name": "value",
          "type": "uint256"
        }
      ],
      "name": "Approval",
      "type": "event"
    },
    {
      "anonymous": false,
      "inputs": [
        {
          "indexed": true,
          "internalType": "address",
          "name": "previousOwner",
          "type": "address"
        },
        {
          "indexed": true,
          "internalType": "address",
          "name": "newOwner",
          "type": "address"
        }
      ],
      "name": "OwnershipTransferred",
      "type": "event"
    },
    {
      "anonymous": false,
      "inputs": [
        {
          "indexed": false,
          "internalType": "address",
          "name": "account",
          "type": "address"
        }
      ],
      "name": "Paused",
      "type": "event"
    },
    {
      "anonymous": false,
      "inputs": [
        {
          "indexed": true,
          "internalType": "address",
          "name": "from",
          "type": "address"
        },
        {
          "indexed": true,
          "internalType": "address",
          "name": "to",
          "type": "address"
        },
        {
          "indexed": false,
          "internalType": "uint256",
          "name": "value",
          "type": "uint256"
        }
      ],
      "name": "Transfer",
      "type": "event"
    },
    {
      "anonymous": false,
      "inputs": [
        {
          "indexed": false,
          "internalType": "address",
          "name": "account",
          "type": "address"
        }
      ],
      "name": "Unpaused",
      "type": "event"
    },
    {
      "inputs": [],
      "name": "DOMAIN_SEPARATOR",
      "outputs": [
        {
          "internalType": "bytes32",
          "name": "",
          "type": "bytes32"
        }
      ],
      "stateMutability": "view",
      "type": "function"
    },
    {
      "inputs": [],
      "name": "TRANSFER_TYPEHASH",
      "outputs": [
        {
          "internalType": "bytes32",
          "name": "",
          "type": "bytes32"
        }
      ],
      "stateMutability": "view",
      "type": "function"
    },
    {
      "inputs": [],
      "name": "VERSION",
      "outputs": [
        {
          "internalType": "string",
          "name": "",
          "type": "string"
        }
      ],
      "stateMutability": "view",
      "type": "function"
    },
    {
      "inputs": [
        {
          "internalType": "address",
          "name": "owner",
          "type": "address"
        },
        {
          "internalType": "address",
          "name": "spender",
          "type": "address"
        }
      ],
      "name": "allowance",
      "outputs": [
        {
          "internalType": "uint256",
          "name": "",
          "type": "uint256"
        }
      ],
      "stateMutability": "view",
      "type": "function"
    },
    {
      "inputs": [
        {
          "internalType": "address",
          "name": "spender",
          "type": "address"
        },
        {
          "internalType": "uint256",
          "name": "amount",
          "type": "uint256"
        }
      ],
      "name": "approve",
      "outputs": [
        {
          "internalType": "bool",
          "name": "",
          "type": "bool"
        }
      ],
      "stateMutability": "nonpayable",
      "type": "function"
    },
    {
      "inputs": [
        {
          "internalType": "address",
          "name": "account",
          "type": "address"
        }
      ],
      "name": "balanceOf",
      "outputs": [
        {
          "internalType": "uint256",
          "name": "",
          "type": "uint256"
        }
      ],
      "stateMutability": "view",
      "type": "function"
    },
    {
      "inputs": [],
      "name": "decimals",
      "outputs": [
        {
          "internalType": "uint8",
          "name": "",
          "type": "uint8"
        }
      ],
      "stateMutability": "view",
      "type": "function"
    },
    {
      "inputs": [
        {
          "internalType": "address",
          "name": "to",
          "type": "address"
        },
        {
          "internalType": "uint256",
          "name": "amount",
          "type": "uint256"
        }
      ],
      "name": "mint",
      "outputs": [],
      "stateMutability": "nonpayable",
      "type": "function"
    },
    {
      "inputs": [],
      "name": "name",
      "outputs": [
        {
          "internalType": "string",
          "name": "",
          "type": "string"
        }
      ],
      "stateMutability": "view",
      "type": "function"
    },
    {
      "inputs": [
        {
          "internalType": "address",
          "name": "",
          "type": "address"
        }
      ],
      "name": "nonces",
      "outputs": [
        {
          "internalType": "uint256",
          "name": "",
          "type": "uint256"
        }
      ],
      "stateMutability": "view",
      "type": "function"
    },
    {
      "inputs": [],
      "name": "owner",
      "outputs": [
        {
          "internalType": "address",
          "name": "",
          "type": "address"
        }
      ],
      "stateMutability": "view",
      "type": "function"
    },
    {
      "inputs": [],
      "name": "pause",
      "outputs": [],
      "stateMutability": "nonpayable",
      "type": "function"
    },
    {
      "inputs": [],
      "name": "paused",
      "outputs": [
        {
          "internalType": "bool",
          "name": "",
          "type": "bool"
        }
      ],
      "stateMutability": "view",
      "type": "function"
    },
    {
      "inputs": [],
      "name": "renounceOwnership",
      "outputs": [],
      "stateMutability": "nonpayable",
      "type": "function"
    },
    {
      "inputs": [],
      "name": "supplyCap",
      "outputs": [
        {
          "internalType": "uint256",
          "name": "",
          "type": "uint256"
        }
      ],
      "stateMutability": "view",
      "type": "function"
    },
    {
      "inputs": [],
      "name": "symbol",
      "outputs": [
        {
          "internalType": "string",
          "name": "",
          "type": "string"
        }
      ],
      "stateMutability": "view",
      "type": "function"
    },
    {
      "inputs": [],
      "name": "totalSupply",
      "outputs": [
        {
          "internalType": "uint256",
          "name": "",
          "type": "uint256"
        }
      ],
      "stateMutability": "view",
      "type": "function"
    },
    {
      "inputs": [
        {
          "internalType": "address",
          "name": "to",
          "type": "address"
        },
        {
          "internalType": "uint256",
          "name": "amount",
          "type": "uint256"
        }
      ],
      "name": "transfer",
      "outputs": [
        {
          "internalType": "bool",
          "name": "",
          "type": "bool"
        }
      ],
      "stateMutability": "nonpayable",
      "type": "function"
    },
    {
      "inputs": [
        {
          "internalType": "address",
          "name": "from",
          "type": "address"
        },
        {
          "internalType": "address",
          "name": "to",
          "type": "address"
        },
        {
          "internalType": "uint256",
          "name": "amount",
          "type": "uint256"
        }
      ],
      "name": "transferFrom",
      "outputs": [
        {
          "internalType": "bool",
          "name": "",
          "type": "bool"
        }
      ],
      "stateMutability": "nonpayable",
      "type": "function"
    },
    {
      "inputs": [
        {
          "internalType": "address",
          "name": "newOwner",
          "type": "address"
        }
      ],
      "name": "transferOwnership",
      "outputs": [],
      "stateMutability": "nonpayable",
      "type": "function"
    },
    {
      "inputs": [
        {
          "internalType": "address",
          "name": "from",
          "type": "address"
        },
        {
          "internalType": "address",
          "name": "to",
          "type": "address"
        },
        {
          "internalType": "uint256",
          "name": "amount",
          "type": "uint256"
        },
        {
          "internalType": "uint256",
          "name": "nonce",
          "type": "uint256"
        },
        {
          "internalType": "uint256",
          "name": "deadline",
          "type": "uint256"
        },
        {
          "internalType": "bytes",
          "name": "signature",
          "type": "bytes"
        }
      ],
      "name": "transferWithSig",
      "outputs": [],
      "stateMutability": "nonpayable",
      "type": "function"
    },
    {
      "inputs": [],
      "name": "unpause",
      "outputs": [],
      "stateMutability": "nonpayable",
      "type": "function"
    },
    {
      "inputs": [
        {
          "internalType": "address",
          "name": "from",
          "type": "address"
        },
        {
          "internalType": "address",
          "name": "to",
          "type": "address"
        },
        {
          "internalType": "uint256",
          "name": "amount",
          "type": "uint256"
        },
        {
          "internalType": "uint256",
          "name": "nonce",
          "type": "uint256"
        },
        {
          "internalType": "uint256",
          "name": "deadline",
          "type": "uint256"
        },
        {
          "internalType": "bytes",
          "name": "signature",
          "type": "bytes"
        }
      ],
      "name": "verifySignature",
      "outputs": [
        {
          "internalType": "bool",
          "name": "",
          "type": "bool"
        }
      ],
      "stateMutability": "view",
      "type": "function"
    }
  ],
  "bytecode": "0x60c060405234801561001057600080fd5b506040516132b13803806132b1833981810160405281019061003291906106bf565b336040518060400160405280600a81526020017f44656d6f20546f6b656e000000000000000000000000000000000000000000008152506040518060400160405280600381526020017f44544b000000000000000000000000000000000000000000000000000000000081525081600390816100ae9190610932565b5080600490816100be9190610932565b505050600073ffffffffffffffffffffffffffffffffffffffff168173ffffffffffffffffffffffffffffffffffffffff16036101335760006040517f1e4fbdf700000000000000000000000000000000000000000000000000000000815260040161012a9190610a45565b60405180910390fd5b6101428161027660201b60201c565b5060008111610186576040517f08c379a000000000000000000000000000000000000000000000000000000000815260040161017d90610abd565b60405180910390fd5b80608081815250506101c4336101a061033c60201b60201c565b600a6101ac9190610c4c565b6103e86101b99190610c97565b61034560201b60201c565b60004690507f8b73c3c69bb8fe3d512ecc4cf759cc79239f7b179b0ffacaa9a75d522b39400f6101f86103cd60201b60201c565b805190602001206040518060400160405280600181526020017f3100000000000000000000000000000000000000000000000000000000000000815250805190602001208330604051602001610252959493929190610d01565b6040516020818303038152906040528051906020012060a081815250505050610dda565b6000600560019054906101000a900473ffffffffffffffffffffffffffffffffffffffff16905081600560016101000a81548173ffffffffffffffffffffffffffffffffffffffff021916908373ffffffffffffffffffffffffffffffffffffffff1602179055508173ffffffffffffffffffffffffffffffffffffffff168173ffffffffffffffffffffffffffffffffffffffff167f8be0079c531659141344cd1fd0a4f28419497f9722a3daafe3b4186f6b6457e060405160405180910390a35050565b60006012905090565b600073ffffffffffffffffffffffffffffffffffffffff168273ffffffffffffffffffffffffffffffffffffffff16036103b75760006040517fec442f050000000000000000000000000000000000000000000000000000000081526004016103ae9190610a45565b60405180910390fd5b6103c96000838361045f60201b60201c565b5050565b6060600380546103dc90610755565b80601f016020809104026020016040519081016040528092919081815260200182805461040890610755565b80156104555780601f1061042a57610100808354040283529160200191610455565b820191906000526020600020905b81548152906001019060200180831161043857829003601f168201915b5050505050905090565b600073ffffffffffffffffffffffffffffffffffffffff168373ffffffffffffffffffffffffffffffffffffffff16036104b15780600260008282546104a59190610d54565b92505081905550610584565b60008060008573ffffffffffffffffffffffffffffffffffffffff1673ffffffffffffffffffffffffffffffffffffffff1681526020019081526020016000205490508181101561053d578381836040517fe450d38c00000000000000000000000000000000000000000000000000000000815260040161053493929190610d88565b60405180910390fd5b8181036000808673ffffffffffffffffffffffffffffffffffffffff1673ffffffffffffffffffffffffffffffffffffffff16815260200190815260200160002081905550505b600073ffffffffffffffffffffffffffffffffffffffff168273ffffffffffffffffffffffffffffffffffffffff16036105cd578060026000828254039250508190555061061a565b806000808473ffffffffffffffffffffffffffffffffffffffff1673ffffffffffffffffffffffffffffffffffffffff168152602001908152602001600020600082825401925050819055505b8173ffffffffffffffffffffffffffffffffffffffff168373ffffffffffffffffffffffffffffffffffffffff167fddf252ad1be2c89b69c2b068fc378daa952ba7f163c4a11628f55a4df523b3ef836040516106779190610dbf565b60405180910390a3505050565b600080fd5b6000819050919050565b61069c81610689565b81146106a757600080fd5b50565b6000815190506106b981610693565b92915050565b6000602082840312156106d5576106d4610684565b5b60006106e3848285016106aa565b91505092915050565b600081519050919050565b7f4e487b7100000000000000000000000000000000000000000000000000000000600052604160045260246000fd5b7f4e487b7100000000000000000000000000000000000000000000000000000000600052602260045260246000fd5b6000600282049050600182168061076d57607f821691505b6020821081036107805761077f610726565b5b50919050565b60008190508160005260206000209050919050565b60006020601f8301049050919050565b600082821b905092915050565b6000600883026107e87fffffffffffffffffffffffffffffffffffffffffffffffffffffffffffffffff826107ab565b6107f286836107ab565b95508019841693508086168417925050509392505050565b6000819050919050565b600061082f61082a61082584610689565b61080a565b610689565b9050919050565b6000819050919050565b61084983610814565b61085d61085582610836565b8484546107b8565b825550505050565b600090565b610872610865565b61087d818484610840565b505050565b5b818110156108a15761089660008261086a565b600181019050610883565b5050565b601f8211156108e6576108b781610786565b6108c08461079b565b810160208510156108cf578190505b6108e36108db8561079b565b830182610882565b50505b505050565b600082821c905092915050565b6000610909600019846008026108eb565b1980831691505092915050565b600061092283836108f8565b9150826002028217905092915050565b61093b826106ec565b67ffffffffffffffff811115610954576109536106f7565b5b61095e8254610755565b6109698282856108a5565b600060209050601f83116001811461099c576000841561098a578287015190505b6109948582610916565b8655506109fc565b601f1984166109aa86610786565b60005b828110156109d2578489015182556001820191506020850194506020810190506109ad565b868310156109ef57848901516109eb601f8916826108f8565b8355505b6001600288020188555050505b505050505050565b600073ffffffffffffffffffffffffffffffffffffffff82169050919050565b6000610a2f82610a04565b9050919050565b610a3f81610a24565b82525050565b6000602082019050610a5a6000830184610a36565b92915050565b600082825260208201905092915050565b7f436170206d757374206265203e20300000000000000000000000000000000000600082015250565b6000610aa7600f83610a60565b9150610ab282610a71565b602082019050919050565b60006020820190508181036000830152610ad681610a9a565b9050919050565b7f4e487b7100000000000000000000000000000000000000000000000000000000600052601160045260246000fd5b60008160011c9050919050565b6000808291508390505b6001851115610b6357808604811115610b3f57610b3e610add565b5b6001851615610b4e5780820291505b8081029050610b5c85610b0c565b9450610b23565b94509492505050565b600082610b7c5760019050610c38565b81610b8a5760009050610c38565b8160018114610ba05760028114610baa57610bd9565b6001915050610c38565b60ff841115610bbc57610bbb610add565b5b8360020a915084821115610bd357610bd2610add565b5b50610c38565b5060208310610133831016604e8410600b8410161715610c0e5782820a905083811115610c0957610c08610add565b5b610c38565b610c1b8484846001610b19565b92509050818404811115610c3257610c31610add565b5b81810290505b9392505050565b600060ff82169050919050565b6000610c5782610689565b9150610c6283610c3f565b9250610c8f7fffffffffffffffffffffffffffffffffffffffffffffffffffffffffffffffff8484610b6c565b905092915050565b6000610ca282610689565b9150610cad83610689565b9250828202610cbb81610689565b91508282048414831517610cd257610cd1610add565b5b5092915050565b6000819050919050565b610cec81610cd9565b82525050565b610cfb81610689565b82525050565b600060a082019050610d166000830188610ce3565b610d236020830187610ce3565b610d306040830186610ce3565b610d3d6060830185610cf2565b610d4a6080830184610a36565b9695505050505050565b6000610d5f82610689565b9150610d6a83610689565b9250828201905080821115610d8257610d81610add565b5b92915050565b6000606082019050610d9d6000830186610a36565b610daa6020830185610cf2565b610db76040830184610cf2565b949350505050565b6000602082019050610dd46000830184610cf2565b92915050565b60805160a05161249d610e14600039600081816105b30152818161079f0152610b630152600081816106680152610907015261249d6000f3fe608060405234801561001057600080fd5b506004361061014c5760003560e01c806370a08231116100c357806395d89b411161007c57806395d89b411461036b578063a9059cbb14610389578063b9328fb1146103b9578063dd62ed3e146103d5578063f2fde38b14610405578063ffa1ad74146104215761014c565b806370a08231146102bb578063715018a6146102eb5780637ecebe00146102f55780638456cb59146103255780638da5cb5b1461032f5780638f770ad01461034d5761014c565b8063313ce56711610115578063313ce5671461020b5780633644e515146102295780633f4ba83a1461024757806340c10f191461025157806344e8ad9a1461026d5780635c975abb1461029d5761014c565b8062bf26f41461015157806306fdde031461016f578063095ea7b31461018d57806318160ddd146101bd57806323b872dd146101db575b600080fd5b61015961043f565b6040516101669190611a05565b60405180910390f35b610177610463565b6040516101849190611ab0565b60405180910390f35b6101a760048036038101906101a29190611b7a565b6104f5565b6040516101b49190611bd5565b60405180910390f35b6101c5610511565b6040516101d29190611bff565b60405180910390f35b6101f560048036038101906101f09190611c1a565b61051b565b6040516102029190611bd5565b60405180910390f35b6102136105a8565b6040516102209190611c89565b60405180910390f35b6102316105b1565b60405161023e9190611a05565b60405180910390f35b61024f6105d5565b005b61026b60048036038101906102669190611b7a565b6105e7565b005b61028760048036038101906102829190611dd9565b6106e9565b6040516102949190611bd5565b60405180910390f35b6102a561083e565b6040516102b29190611bd5565b60405180910390f35b6102d560048036038101906102d09190611e82565b610855565b6040516102e29190611bff565b60405180910390f35b6102f361089d565b005b61030f600480360381019061030a9190611e82565b6108b1565b60405161031c9190611bff565b60405180910390f35b61032d6108c9565b005b6103376108db565b6040516103449190611ebe565b60405180910390f35b610355610905565b6040516103629190611bff565b60405180910390f35b610373610929565b6040516103809190611ab0565b60405180910390f35b6103a3600480360381019061039e9190611b7a565b6109bb565b6040516103b09190611bd5565b60405180910390f35b6103d360048036038101906103ce9190611dd9565b610a46565b005b6103ef60048036038101906103ea9190611ed9565b610c9c565b6040516103fc9190611bff565b60405180910390f35b61041f600480360381019061041a9190611e82565b610d23565b005b610429610da9565b6040516104369190611ab0565b60405180910390f35b7f4144f681a2e4d6d2035dcbc0720f95d08cc1779083c71290e8a4bb4c1529f59e81565b60606003805461047290611f48565b80601f016020809104026020016040519081016040528092919081815260200182805461049e90611f48565b80156104eb5780601f106104c0576101008083540402835291602001916104eb565b820191906000526020600020905b8154815290600101906020018083116104ce57829003601f168201915b5050505050905090565b60006104ff610de2565b6105098383610e23565b905092915050565b6000600254905090565b6000610525610de2565b600073ffffffffffffffffffffffffffffffffffffffff168373ffffffffffffffffffffffffffffffffffffffff1603610594576040517f08c379a000000000000000000000000000000000000000000000000000000000815260040161058b90611fc5565b60405180910390fd5b61059f848484610e46565b90509392505050565b60006012905090565b7f000000000000000000000000000000000000000000000000000000000000000081565b6105dd610e75565b6105e5610efc565b565b6105ef610e75565b6105f7610de2565b600073ffffffffffffffffffffffffffffffffffffffff168273ffffffffffffffffffffffffffffffffffffffff1603610666576040517f08c379a000000000000000000000000000000000000000000000000000000000815260040161065d90612031565b60405180910390fd5b7f000000000000000000000000000000000000000000000000000000000000000081610690610511565b61069a9190612080565b11156106db576040517f08c379a00000000000000000000000000000000000000000000000000000000081526004016106d290612100565b60405180910390fd5b6106e58282610f5f565b5050565b6000824211806107385750600660008873ffffffffffffffffffffffffffffffffffffffff1673ffffffffffffffffffffffffffffffffffffffff168152602001908152602001600020548414155b156107465760009050610834565b60007f4144f681a2e4d6d2035dcbc0720f95d08cc1779083c71290e8a4bb4c1529f59e888888888860405160200161078396959493929190612120565b60405160208183030381529060405280519060200120905060007f0000000000000000000000000000000000000000000000000000000000000000826040516020016107d09291906121f9565b60405160208183030381529060405280519060200120905060006107fd8583610fe190919063ffffffff16565b90508973ffffffffffffffffffffffffffffffffffffffff168173ffffffffffffffffffffffffffffffffffffffff161493505050505b9695505050505050565b6000600560009054906101000a900460ff16905090565b60008060008373ffffffffffffffffffffffffffffffffffffffff1673ffffffffffffffffffffffffffffffffffffffff168152602001908152602001600020549050919050565b6108a5610e75565b6108af600061100d565b565b60066020528060005260406000206000915090505481565b6108d1610e75565b6108d96110d3565b565b6000600560019054906101000a900473ffffffffffffffffffffffffffffffffffffffff16905090565b7f000000000000000000000000000000000000000000000000000000000000000081565b60606004805461093890611f48565b80601f016020809104026020016040519081016040528092919081815260200182805461096490611f48565b80156109b15780601f10610986576101008083540402835291602001916109b1565b820191906000526020600020905b81548152906001019060200180831161099457829003601f168201915b5050505050905090565b60006109c5610de2565b600073ffffffffffffffffffffffffffffffffffffffff168373ffffffffffffffffffffffffffffffffffffffff1603610a34576040517f08c379a0000000000000000000000000000000000000000000000000000000008152600401610a2b90611fc5565b60405180910390fd5b610a3e8383611136565b905092915050565b81421115610a89576040517f08c379a0000000000000000000000000000000000000000000000000000000008152600401610a809061227c565b60405180910390fd5b600660008773ffffffffffffffffffffffffffffffffffffffff1673ffffffffffffffffffffffffffffffffffffffff168152602001908152602001600020548314610b0a576040517f08c379a0000000000000000000000000000000000000000000000000000000008152600401610b01906122e8565b60405180910390fd5b60007f4144f681a2e4d6d2035dcbc0720f95d08cc1779083c71290e8a4bb4c1529f59e8787878787604051602001610b4796959493929190612120565b60405160208183030381529060405280519060200120905060007f000000000000000000000000000000000000000000000000000000000000000082604051602001610b949291906121f9565b6040516020818303038152906040528051906020012090506000610bc18483610fe190919063ffffffff16565b90508873ffffffffffffffffffffffffffffffffffffffff168173ffffffffffffffffffffffffffffffffffffffff1614610c31576040517f08c379a0000000000000000000000000000000000000000000000000000000008152600401610c2890612354565b60405180910390fd5b600660008a73ffffffffffffffffffffffffffffffffffffffff1673ffffffffffffffffffffffffffffffffffffffff1681526020019081526020016000206000815480929190610c8190612374565b9190505550610c91898989611159565b505050505050505050565b6000600160008473ffffffffffffffffffffffffffffffffffffffff1673ffffffffffffffffffffffffffffffffffffffff16815260200190815260200160002060008373ffffffffffffffffffffffffffffffffffffffff1673ffffffffffffffffffffffffffffffffffffffff16815260200190815260200160002054905092915050565b610d2b610e75565b600073ffffffffffffffffffffffffffffffffffffffff168173ffffffffffffffffffffffffffffffffffffffff1603610d9d5760006040517f1e4fbdf7000000000000000000000000000000000000000000000000000000008152600401610d949190611ebe565b60405180910390fd5b610da68161100d565b50565b6040518060400160405280600181526020017f310000000000000000000000000000000000000000000000000000000000000081525081565b610dea61083e565b15610e21576040517fd93c066500000000000000000000000000000000000000000000000000000000815260040160405180910390fd5b565b600080610e2e61124d565b9050610e3b818585611255565b600191505092915050565b600080610e5161124d565b9050610e5e858285611267565b610e69858585611159565b60019150509392505050565b610e7d61124d565b73ffffffffffffffffffffffffffffffffffffffff16610e9b6108db565b73ffffffffffffffffffffffffffffffffffffffff1614610efa57610ebe61124d565b6040517f118cdaa7000000000000000000000000000000000000000000000000000000008152600401610ef19190611ebe565b60405180910390fd5b565b610f046112fc565b6000600560006101000a81548160ff0219169083151502179055507f5db9ee0a495bf2e6ff9c91a7834c1ba4fdd244a5e8aa4e537bd38aeae4b073aa610f4861124d565b604051610f559190611ebe565b60405180910390a1565b600073ffffffffffffffffffffffffffffffffffffffff168273ffffffffffffffffffffffffffffffffffffffff1603610fd15760006040517fec442f05000000000000000000000000000000000000000000000000000000008152600401610fc89190611ebe565b60405180910390fd5b610fdd6000838361133c565b5050565b600080600080610ff18686611561565b92509250925061100182826115bd565b82935050505092915050565b6000600560019054906101000a900473ffffffffffffffffffffffffffffffffffffffff16905081600560016101000a81548173ffffffffffffffffffffffffffffffffffffffff021916908373ffffffffffffffffffffffffffffffffffffffff1602179055508173ffffffffffffffffffffffffffffffffffffffff168173ffffffffffffffffffffffffffffffffffffffff167f8be0079c531659141344cd1fd0a4f28419497f9722a3daafe3b4186f6b6457e060405160405180910390a35050565b6110db610de2565b6001600560006101000a81548160ff0219169083151502179055507f62e78cea01bee320cd4e420270b5ea74000d11b0c9f74754ebdbfc544b05a25861111f61124d565b60405161112c9190611ebe565b60405180910390a1565b60008061114161124d565b905061114e818585611159565b600191505092915050565b600073ffffffffffffffffffffffffffffffffffffffff168373ffffffffffffffffffffffffffffffffffffffff16036111cb5760006040517f96c6fd1e0000000000000000000000000000000000000000000000000000000081526004016111c29190611ebe565b60405180910390fd5b600073ffffffffffffffffffffffffffffffffffffffff168273ffffffffffffffffffffffffffffffffffffffff160361123d5760006040517fec442f050000000000000000000000000000000000000000000000000000000081526004016112349190611ebe565b60405180910390fd5b61124883838361133c565b505050565b600033905090565b6112628383836001611721565b505050565b60006112738484610c9c565b90507fffffffffffffffffffffffffffffffffffffffffffffffffffffffffffffffff8110156112f657818110156112e6578281836040517ffb8f41b20000000000000000000000000000000000000000000000000000000081526004016112dd939291906123bc565b60405180910390fd5b6112f584848484036000611721565b5b50505050565b61130461083e565b61133a576040517f8dfc202b00000000000000000000000000000000000000000000000000000000815260040160405180910390fd5b565b600073ffffffffffffffffffffffffffffffffffffffff168373ffffffffffffffffffffffffffffffffffffffff160361138e5780600260008282546113829190612080565b92505081905550611461565b60008060008573ffffffffffffffffffffffffffffffffffffffff1673ffffffffffffffffffffffffffffffffffffffff1681526020019081526020016000205490508181101561141a578381836040517fe450d38c000000000000000000000000000000000000000000000000000000008152600401611411939291906123bc565b60405180910390fd5b8181036000808673ffffffffffffffffffffffffffffffffffffffff1673ffffffffffffffffffffffffffffffffffffffff16815260200190815260200160002081905550505b600073ffffffffffffffffffffffffffffffffffffffff168273ffffffffffffffffffffffffffffffffffffffff16036114aa57806002600082825403925050819055506114f7565b806000808473ffffffffffffffffffffffffffffffffffffffff1673ffffffffffffffffffffffffffffffffffffffff168152602001908152602001600020600082825401925050819055505b8173ffffffffffffffffffffffffffffffffffffffff168373ffffffffffffffffffffffffffffffffffffffff167fddf252ad1be2c89b69c2b068fc378daa952ba7f163c4a11628f55a4df523b3ef836040516115549190611bff565b60405180910390a3505050565b600080600060418451036115a65760008060006020870151925060408701519150606087015160001a9050611598888285856118f8565b9550955095505050506115b6565b60006002855160001b9250925092505b9250925092565b600060038111156115d1576115d06123f3565b5b8260038111156115e4576115e36123f3565b5b031561171d57600160038111156115fe576115fd6123f3565b5b826003811115611611576116106123f3565b5b03611648576040517ff645eedf00000000000000000000000000000000000000000000000000000000815260040160405180910390fd5b6002600381111561165c5761165b6123f3565b5b82600381111561166f5761166e6123f3565b5b036116b4578060001c6040517ffce698f70000000000000000000000000000000000000000000000000000000081526004016116ab9190611bff565b60405180910390fd5b6003808111156116c7576116c66123f3565b5b8260038111156116da576116d96123f3565b5b0361171c57806040517fd78bce0c0000000000000000000000000000000000000000000000000000000081526004016117139190611a05565b60405180910390fd5b5b5050565b600073ffffffffffffffffffffffffffffffffffffffff168473ffffffffffffffffffffffffffffffffffffffff16036117935760006040517fe602df0500000000000000000000000000000000000000000000000000000000815260040161178a9190611ebe565b60405180910390fd5b600073ffffffffffffffffffffffffffffffffffffffff168373ffffffffffffffffffffffffffffffffffffffff16036118055760006040517f94280d620000000000000000000000000000000000000000000000000000000081526004016117fc9190611ebe565b60405180910390fd5b81600160008673ffffffffffffffffffffffffffffffffffffffff1673ffffffffffffffffffffffffffffffffffffffff16815260200190815260200160002060008573ffffffffffffffffffffffffffffffffffffffff1673ffffffffffffffffffffffffffffffffffffffff1681526020019081526020016000208190555080156118f2578273ffffffffffffffffffffffffffffffffffffffff168473ffffffffffffffffffffffffffffffffffffffff167f8c5be1e5ebec7d5bd14f71427d1e84f3dd0314c0f7b2291e5b200ac8c7c3b925846040516118e99190611bff565b60405180910390a35b50505050565b60008060007f7fffffffffffffffffffffffffffffff5d576e7357a4501ddfe92f46681b20a08460001c11156119385760006003859250925092506119e2565b60006001888888886040516000815260200160405260405161195d9493929190612422565b6020604051602081039080840390855afa15801561197f573d6000803e3d6000fd5b505050602060405103519050600073ffffffffffffffffffffffffffffffffffffffff168173ffffffffffffffffffffffffffffffffffffffff16036119d357600060016000801b935093509350506119e2565b8060008060001b935093509350505b9450945094915050565b6000819050919050565b6119ff816119ec565b82525050565b6000602082019050611a1a60008301846119f6565b92915050565b600081519050919050565b600082825260208201905092915050565b60005b83811015611a5a578082015181840152602081019050611a3f565b60008484015250505050565b6000601f19601f8301169050919050565b6000611a8282611a20565b611a8c8185611a2b565b9350611a9c818560208601611a3c565b611aa581611a66565b840191505092915050565b60006020820190508181036000830152611aca8184611a77565b905092915050565b6000604051905090565b600080fd5b600080fd5b600073ffffffffffffffffffffffffffffffffffffffff82169050919050565b6000611b1182611ae6565b9050919050565b611b2181611b06565b8114611b2c57600080fd5b50565b600081359050611b3e81611b18565b92915050565b6000819050919050565b611b5781611b44565b8114611b6257600080fd5b50565b600081359050611b7481611b4e565b92915050565b60008060408385031215611b9157611b90611adc565b5b6000611b9f85828601611b2f565b9250506020611bb085828601611b65565b9150509250929050565b60008115159050919050565b611bcf81611bba565b82525050565b6000602082019050611bea6000830184611bc6565b92915050565b611bf981611b44565b82525050565b6000602082019050611c146000830184611bf0565b92915050565b600080600060608486031215611c3357611c32611adc565b5b6000611c4186828701611b2f565b9350506020611c5286828701611b2f565b9250506040611c6386828701611b65565b9150509250925092565b600060ff82169050919050565b611c8381611c6d565b82525050565b6000602082019050611c9e6000830184611c7a565b92915050565b600080fd5b600080fd5b7f4e487b7100000000000000000000000000000000000000000000000000000000600052604160045260246000fd5b611ce682611a66565b810181811067ffffffffffffffff82111715611d0557611d04611cae565b5b80604052505050565b6000611d18611ad2565b9050611d248282611cdd565b919050565b600067ffffffffffffffff821115611d4457611d43611cae565b5b611d4d82611a66565b9050602081019050919050565b82818337600083830152505050565b6000611d7c611d7784611d29565b611d0e565b905082815260208101848484011115611d9857611d97611ca9565b5b611da3848285611d5a565b509392505050565b600082601f830112611dc057611dbf611ca4565b5b8135611dd0848260208601611d69565b91505092915050565b60008060008060008060c08789031215611df657611df5611adc565b5b6000611e0489828a01611b2f565b9650506020611e1589828a01611b2f565b9550506040611e2689828a01611b65565b9450506060611e3789828a01611b65565b9350506080611e4889828a01611b65565b92505060a087013567ffffffffffffffff811115611e6957611e68611ae1565b5b611e7589828a01611dab565b9150509295509295509295565b600060208284031215611e9857611e97611adc565b5b6000611ea684828501611b2f565b91505092915050565b611eb881611b06565b82525050565b6000602082019050611ed36000830184611eaf565b92915050565b60008060408385031215611ef057611eef611adc565b5b6000611efe85828601611b2f565b9250506020611f0f85828601611b2f565b9150509250929050565b7f4e487b7100000000000000000000000000000000000000000000000000000000600052602260045260246000fd5b60006002820490506001821680611f6057607f821691505b602082108103611f7357611f72611f19565b5b50919050565b7f496e76616c696420726563697069656e74000000000000000000000000000000600082015250565b6000611faf601183611a2b565b9150611fba82611f79565b602082019050919050565b60006020820190508181036000830152611fde81611fa2565b9050919050565b7f43616e6e6f74206d696e7420746f207a65726f20616464726573730000000000600082015250565b600061201b601b83611a2b565b915061202682611fe5565b602082019050919050565b6000602082019050818103600083015261204a8161200e565b9050919050565b7f4e487b7100000000000000000000000000000000000000000000000000000000600052601160045260246000fd5b600061208b82611b44565b915061209683611b44565b92508282019050808211156120ae576120ad612051565b5b92915050565b7f4361702065786365656465640000000000000000000000000000000000000000600082015250565b60006120ea600c83611a2b565b91506120f5826120b4565b602082019050919050565b60006020820190508181036000830152612119816120dd565b9050919050565b600060c08201905061213560008301896119f6565b6121426020830188611eaf565b61214f6040830187611eaf565b61215c6060830186611bf0565b6121696080830185611bf0565b61217660a0830184611bf0565b979650505050505050565b600081905092915050565b7f1901000000000000000000000000000000000000000000000000000000000000600082015250565b60006121c2600283612181565b91506121cd8261218c565b600282019050919050565b6000819050919050565b6121f36121ee826119ec565b6121d8565b82525050565b6000612204826121b5565b915061221082856121e2565b60208201915061222082846121e2565b6020820191508190509392505050565b7f5369676e61747572652065787069726564000000000000000000000000000000600082015250565b6000612266601183611a2b565b915061227182612230565b602082019050919050565b6000602082019050818103600083015261229581612259565b9050919050565b7f496e76616c6964206e6f6e636500000000000000000000000000000000000000600082015250565b60006122d2600d83611a2b565b91506122dd8261229c565b602082019050919050565b60006020820190508181036000830152612301816122c5565b9050919050565b7f496e76616c6964207369676e6174757265000000000000000000000000000000600082015250565b600061233e601183611a2b565b915061234982612308565b602082019050919050565b6000602082019050818103600083015261236d81612331565b9050919050565b600061237f82611b44565b91507fffffffffffffffffffffffffffffffffffffffffffffffffffffffffffffffff82036123b1576123b0612051565b5b600182019050919050565b60006060820190506123d16000830186611eaf565b6123de6020830185611bf0565b6123eb6040830184611bf0565b949350505050565b7f4e487b7100000000000000000000000000000000000000000000000000000000600052602160045260246000fd5b600060808201905061243760008301876119f6565b6124446020830186611c7a565b61245160408301856119f6565b61245e60608301846119f6565b9594505050505056fea2646970667358221220b185b69829a8005287092b33ebf7865ed9e624a78681ddf459cc807ed2248e3164736f6c634300081c0033",
  "linkReferences": {},
  "deployedLinkReferences": {}
}