{
  "_format": "hh-sol-artifact-1",
  "contractName": "MyToken",
  "sourceName": "contracts/MyToken.sol",
  "abi": [
    {
      "inputs": [],
      "stateMutability": "nonpayable",
      "type": "constructor"
    },
    {
      "anonymous": false,
      "inputs": [
        {
          "indexed": true,
          "internalType": "address",
          "name": "from",
          "type": "address"
        },
        {
          "indexed": true,
          "internalType": "address",
          "name": "to",
          "type": "address"
        },
        {
          "indexed": false,
          "internalType": "uint256",
          "name": "value",
          "type": "uint256"
        }
      ],
      "name": "Transfer",
      "type": "event"
    },
    {
      "inputs": [
        {
          "internalType": "address",
          "name": "",
          "type": "address"
        }
      ],
      "name": "balanceOf",
      "outputs": [
        {
          "internalType": "uint256",
          "name": "",
          "type": "uint256"
        }
      ],
      "stateMutability": "view",
      "type": "function"
    },
    {
      "inputs": [],
      "name": "decimals",
      "outputs": [
        {
          "internalType": "uint8",
          "name": "",
          "type": "uint8"
        }
      ],
      "stateMutability": "view",
      "type": "function"
    },
    {
      "inputs": [
        {
          "internalType": "address",
          "name": "to",
          "type": "address"
        },
        {
          "internalType": "uint256",
          "name": "amount",
          "type": "uint256"
        }
      ],
      "name": "mint",
      "outputs": [],
      "stateMutability": "nonpayable",
      "type": "function"
    },
    {
      "inputs": [],
      "name": "name",
      "outputs": [
        {
          "internalType": "string",
          "name": "",
          "type": "string"
        }
      ],
      "stateMutability": "view",
      "type": "function"
    },
    {
      "inputs": [],
      "name": "symbol",
      "outputs": [
        {
          "internalType": "string",
          "name": "",
          "type": "string"
        }
      ],
      "stateMutability": "view",
      "type": "function"
    },
    {
      "inputs": [],
      "name": "totalSupply",
      "outputs": [
        {
          "internalType": "uint256",
          "name": "",
          "type": "uint256"
        }
      ],
      "stateMutability": "view",
      "type": "function"
    },
    {
      "inputs": [
        {
          "internalType": "address",
          "name": "to",
          "type": "address"
        },
        {
          "internalType": "uint256",
          "name": "amount",
          "type": "uint256"
        }
      ],
      "name": "transfer",
      "outputs": [
        {
          "internalType": "bool",
          "name": "",
          "type": "bool"
        }
      ],
      "stateMutability": "nonpayable",
      "type": "function"
    }
  ],
  "bytecode": "0x60806040526040518060400160405280600a81526020017f44656d6f20546f6b656e00000000000000000000000000000000000000000000815250600090816100489190610384565b506040518060400160405280600381526020017f44544b00000000000000000000000000000000000000000000000000000000008152506001908161008d9190610384565b506012600260006101000a81548160ff021916908360ff1602179055503480156100b657600080fd5b50600260009054906101000a900460ff1660ff16600a6100d691906105b8565b6103e86100e39190610603565b600381905550600354600460003373ffffffffffffffffffffffffffffffffffffffff1673ffffffffffffffffffffffffffffffffffffffff16815260200190815260200160002081905550610645565b600081519050919050565b7f4e487b7100000000000000000000000000000000000000000000000000000000600052604160045260246000fd5b7f4e487b7100000000000000000000000000000000000000000000000000000000600052602260045260246000fd5b600060028204905060018216806101b557607f821691505b6020821081036101c8576101c761016e565b5b50919050565b60008190508160005260206000209050919050565b60006020601f8301049050919050565b600082821b905092915050565b6000600883026102307fffffffffffffffffffffffffffffffffffffffffffffffffffffffffffffffff826101f3565b61023a86836101f3565b95508019841693508086168417925050509392505050565b6000819050919050565b6000819050919050565b600061028161027c61027784610252565b61025c565b610252565b9050919050565b6000819050919050565b61029b83610266565b6102af6102a782610288565b848454610200565b825550505050565b600090565b6102c46102b7565b6102cf818484610292565b505050565b5b818110156102f3576102e86000826102bc565b6001810190506102d5565b5050565b601f82111561033857610309816101ce565b610312846101e3565b81016020851015610321578190505b61033561032d856101e3565b8301826102d4565b50505b505050565b600082821c905092915050565b600061035b6000198460080261033d565b1980831691505092915050565b6000610374838361034a565b9150826002028217905092915050565b61038d82610134565b67ffffffffffffffff8111156103a6576103a561013f565b5b6103b0825461019d565b6103bb8282856102f7565b600060209050601f8311600181146103ee57600084156103dc578287015190505b6103e68582610368565b86555061044e565b601f1984166103fc866101ce565b60005b82811015610424578489015182556001820191506020850194506020810190506103ff565b86831015610441578489015161043d601f89168261034a565b8355505b6001600288020188555050505b505050505050565b7f4e487b7100000000000000000000000000000000000000000000000000000000600052601160045260246000fd5b60008160011c9050919050565b6000808291508390505b60018511156104dc578086048111156104b8576104b7610456565b5b60018516156104c75780820291505b80810290506104d585610485565b945061049c565b94509492505050565b6000826104f557600190506105b1565b8161050357600090506105b1565b8160018114610519576002811461052357610552565b60019150506105b1565b60ff84111561053557610534610456565b5b8360020a91508482111561054c5761054b610456565b5b506105b1565b5060208310610133831016604e8410600b84101617156105875782820a90508381111561058257610581610456565b5b6105b1565b6105948484846001610492565b925090508184048111156105ab576105aa610456565b5b81810290505b9392505050565b60006105c382610252565b91506105ce83610252565b92506105fb7fffffffffffffffffffffffffffffffffffffffffffffffffffffffffffffffff84846104e5565b905092915050565b600061060e82610252565b915061061983610252565b925082820261062781610252565b9150828204841483151761063e5761063d610456565b5b5092915050565b6109fe806106546000396000f3fe608060405234801561001057600080fd5b506004361061007d5760003560e01c806340c10f191161005b57806340c10f19146100dc57806370a08231146100f857806395d89b4114610128578063a9059cbb146101465761007d565b806306fdde031461008257806318160ddd146100a0578063313ce567146100be575b600080fd5b61008a610176565b604051610097919061063a565b60405180910390f35b6100a8610204565b6040516100b59190610675565b60405180910390f35b6100c661020a565b6040516100d391906106ac565b60405180910390f35b6100f660048036038101906100f19190610756565b61021d565b005b610112600480360381019061010d9190610796565b610365565b60405161011f9190610675565b60405180910390f35b61013061037d565b60405161013d919061063a565b60405180910390f35b610160600480360381019061015b9190610756565b61040b565b60405161016d91906107de565b60405180910390f35b6000805461018390610828565b80601f01602080910402602001604051908101604052809291908181526020018280546101af90610828565b80156101fc5780601f106101d1576101008083540402835291602001916101fc565b820191906000526020600020905b8154815290600101906020018083116101df57829003601f168201915b505050505081565b60035481565b600260009054906101000a900460ff1681565b600073ffffffffffffffffffffffffffffffffffffffff168273ffffffffffffffffffffffffffffffffffffffff160361028c576040517f08c379a0000000000000000000000000000000000000000000000000000000008152600401610283906108a5565b60405180910390fd5b80600460008473ffffffffffffffffffffffffffffffffffffffff1673ffffffffffffffffffffffffffffffffffffffff16815260200190815260200160002060008282546102db91906108f4565b9250508190555080600360008282546102f491906108f4565b925050819055508173ffffffffffffffffffffffffffffffffffffffff16600073ffffffffffffffffffffffffffffffffffffffff167fddf252ad1be2c89b69c2b068fc378daa952ba7f163c4a11628f55a4df523b3ef836040516103599190610675565b60405180910390a35050565b60046020528060005260406000206000915090505481565b6001805461038a90610828565b80601f01602080910402602001604051908101604052809291908181526020018280546103b690610828565b80156104035780601f106103d857610100808354040283529160200191610403565b820191906000526020600020905b8154815290600101906020018083116103e657829003601f168201915b505050505081565b600081600460003373ffffffffffffffffffffffffffffffffffffffff1673ffffffffffffffffffffffffffffffffffffffff16815260200190815260200160002054101561048f576040517f08c379a000000000000000000000000000000000000000000000000000000000815260040161048690610974565b60405180910390fd5b81600460003373ffffffffffffffffffffffffffffffffffffffff1673ffffffffffffffffffffffffffffffffffffffff16815260200190815260200160002060008282546104de9190610994565b9250508190555081600460008573ffffffffffffffffffffffffffffffffffffffff1673ffffffffffffffffffffffffffffffffffffffff168152602001908152602001600020600082825461053491906108f4565b925050819055508273ffffffffffffffffffffffffffffffffffffffff163373ffffffffffffffffffffffffffffffffffffffff167fddf252ad1be2c89b69c2b068fc378daa952ba7f163c4a11628f55a4df523b3ef846040516105989190610675565b60405180910390a36001905092915050565b600081519050919050565b600082825260208201905092915050565b60005b838110156105e45780820151818401526020810190506105c9565b60008484015250505050565b6000601f19601f8301169050919050565b600061060c826105aa565b61061681856105b5565b93506106268185602086016105c6565b61062f816105f0565b840191505092915050565b600060208201905081810360008301526106548184610601565b905092915050565b6000819050919050565b61066f8161065c565b82525050565b600060208201905061068a6000830184610666565b92915050565b600060ff82169050919050565b6106a681610690565b82525050565b60006020820190506106c1600083018461069d565b92915050565b600080fd5b600073ffffffffffffffffffffffffffffffffffffffff82169050919050565b60006106f7826106cc565b9050919050565b610707816106ec565b811461071257600080fd5b50565b600081359050610724816106fe565b92915050565b6107338161065c565b811461073e57600080fd5b50565b6000813590506107508161072a565b92915050565b6000806040838503121561076d5761076c6106c7565b5b600061077b85828601610715565b925050602061078c85828601610741565b9150509250929050565b6000602082840312156107ac576107ab6106c7565b5b60006107ba84828501610715565b91505092915050565b60008115159050919050565b6107d8816107c3565b82525050565b60006020820190506107f360008301846107cf565b92915050565b7f4e487b7100000000000000000000000000000000000000000000000000000000600052602260045260246000fd5b6000600282049050600182168061084057607f821691505b602082108103610853576108526107f9565b5b50919050565b7f43616e6e6f74206d696e7420746f207a65726f20616464726573730000000000600082015250565b600061088f601b836105b5565b915061089a82610859565b602082019050919050565b600060208201905081810360008301526108be81610882565b9050919050565b7f4e487b7100000000000000000000000000000000000000000000000000000000600052601160045260246000fd5b60006108ff8261065c565b915061090a8361065c565b9250828201905080821115610922576109216108c5565b5b92915050565b7f496e73756666696369656e742062616c616e6365000000000000000000000000600082015250565b600061095e6014836105b5565b915061096982610928565b602082019050919050565b6000602082019050818103600083015261098d81610951565b9050919050565b600061099f8261065c565b91506109aa8361065c565b92508282039050818111156109c2576109c16108c5565b5b9291505056fea264697066735822122024dc3ff38fef57c3aab59d6080caf5c2f5e415b89cfafcf6235e8bf2d1670dc864736f6c634300081c0033",
  "linkReferences": {},
  "deployedLinkReferences": {}
}