{
  "_format": "hh-sol-artifact-1",
  "contractName": "MyToken",
  "sourceName": "contracts/MyToken.sol",
  "abi": [
    {
      "inputs": [],
      "stateMutability": "nonpayable",
      "type": "constructor"
    },
    {
      "inputs": [],
      "name": "ECDSAInvalidSignature",
      "type": "error"
    },
    {
      "inputs": [
        {
          "internalType": "uint256",
          "name": "length",
          "type": "uint256"
        }
      ],
      "name": "ECDSAInvalidSignatureLength",
      "type": "error"
    },
    {
      "inputs": [
        {
          "internalType": "bytes32",
          "name": "s",
          "type": "bytes32"
        }
      ],
      "name": "ECDSAInvalidSignatureS",
      "type": "error"
    },
    {
      "anonymous": false,
      "inputs": [
        {
          "indexed": true,
          "internalType": "address",
          "name": "owner",
          "type": "address"
        },
        {
          "indexed": true,
          "internalType": "address",
          "name": "spender",
          "type": "address"
        },
        {
          "indexed": false,
          "internalType": "uint256",
          "name": "value",
          "type": "uint256"
        }
      ],
      "name": "Approval",
      "type": "event"
    },
    {
      "anonymous": false,
      "inputs": [
        {
          "indexed": true,
          "internalType": "address",
          "name": "from",
          "type": "address"
        },
        {
          "indexed": true,
          "internalType": "address",
          "name": "to",
          "type": "address"
        },
        {
          "indexed": false,
          "internalType": "uint256",
          "name": "value",
          "type": "uint256"
        }
      ],
      "name": "Transfer",
      "type": "event"
    },
    {
      "inputs": [],
      "name": "DOMAIN_SEPARATOR",
      "outputs": [
        {
          "internalType": "bytes32",
          "name": "",
          "type": "bytes32"
        }
      ],
      "stateMutability": "view",
      "type": "function"
    },
    {
      "inputs": [],
      "name": "TRANSFER_TYPEHASH",
      "outputs": [
        {
          "internalType": "bytes32",
          "name": "",
          "type": "bytes32"
        }
      ],
      "stateMutability": "view",
      "type": "function"
    },
    {
      "inputs": [],
      "name": "VERSION",
      "outputs": [
        {
          "internalType": "string",
          "name": "",
          "type": "string"
        }
      ],
      "stateMutability": "view",
      "type": "function"
    },
    {
      "inputs": [
        {
          "internalType": "address",
          "name": "",
          "type": "address"
        },
        {
          "internalType": "address",
          "name": "",
          "type": "address"
        }
      ],
      "name": "allowance",
      "outputs": [
        {
          "internalType": "uint256",
          "name": "",
          "type": "uint256"
        }
      ],
      "stateMutability": "view",
      "type": "function"
    },
    {
      "inputs": [
        {
          "internalType": "address",
          "name": "spender",
          "type": "address"
        },
        {
          "internalType": "uint256",
          "name": "amount",
          "type": "uint256"
        }
      ],
      "name": "approve",
      "outputs": [
        {
          "internalType": "bool",
          "name": "",
          "type": "bool"
        }
      ],
      "stateMutability": "nonpayable",
      "type": "function"
    },
    {
      "inputs": [
        {
          "internalType": "address",
          "name": "",
          "type": "address"
        }
      ],
      "name": "balanceOf",
      "outputs": [
        {
          "internalType": "uint256",
          "name": "",
          "type": "uint256"
        }
      ],
      "stateMutability": "view",
      "type": "function"
    },
    {
      "inputs": [],
      "name": "decimals",
      "outputs": [
        {
          "internalType": "uint8",
          "name": "",
          "type": "uint8"
        }
      ],
      "stateMutability": "view",
      "type": "function"
    },
    {
      "inputs": [
        {
          "internalType": "address",
          "name": "to",
          "type": "address"
        },
        {
          "internalType": "uint256",
          "name": "amount",
          "type": "uint256"
        }
      ],
      "name": "mint",
      "outputs": [],
      "stateMutability": "nonpayable",
      "type": "function"
    },
    {
      "inputs": [],
      "name": "name",
      "outputs": [
        {
          "internalType": "string",
          "name": "",
          "type": "string"
        }
      ],
      "stateMutability": "view",
      "type": "function"
    },
    {
      "inputs": [
        {
          "internalType": "address",
          "name": "",
          "type": "address"
        }
      ],
      "name": "nonces",
      "outputs": [
        {
          "internalType": "uint256",
          "name": "",
          "type": "uint256"
        }
      ],
      "stateMutability": "view",
      "type": "function"
    },
    {
      "inputs": [],
      "name": "owner",
      "outputs": [
        {
          "internalType": "address",
          "name": "",
          "type": "address"
        }
      ],
      "stateMutability": "view",
      "type": "function"
    },
    {
      "inputs": [],
      "name": "symbol",
      "outputs": [
        {
          "internalType": "string",
          "name": "",
          "type": "string"
        }
      ],
      "stateMutability": "view",
      "type": "function"
    },
    {
      "inputs": [],
      "name": "totalSupply",
      "outputs": [
        {
          "internalType": "uint256",
          "name": "",
          "type": "uint256"
        }
      ],
      "stateMutability": "view",
      "type": "function"
    },
    {
      "inputs": [
        {
          "internalType": "address",
          "name": "to",
          "type": "address"
        },
        {
          "internalType": "uint256",
          "name": "amount",
          "type": "uint256"
        }
      ],
      "name": "transfer",
      "outputs": [
        {
          "internalType": "bool",
          "name": "",
          "type": "bool"
        }
      ],
      "stateMutability": "nonpayable",
      "type": "function"
    },
    {
      "inputs": [
        {
          "internalType": "address",
          "name": "from",
          "type": "address"
        },
        {
          "internalType": "address",
          "name": "to",
          "type": "address"
        },
        {
          "internalType": "uint256",
          "name": "amount",
          "type": "uint256"
        }
      ],
      "name": "transferFrom",
      "outputs": [
        {
          "internalType": "bool",
          "name": "",
          "type": "bool"
        }
      ],
      "stateMutability": "nonpayable",
      "type": "function"
    },
    {
      "inputs": [
        {
          "internalType": "address",
          "name": "from",
          "type": "address"
        },
        {
          "internalType": "address",
          "name": "to",
          "type": "address"
        },
        {
          "internalType": "uint256",
          "name": "amount",
          "type": "uint256"
        },
        {
          "internalType": "uint256",
          "name": "deadline",
          "type": "uint256"
        },
        {
          "internalType": "bytes",
          "name": "signature",
          "type": "bytes"
        }
      ],
      "name": "transferWithSig",
      "outputs": [],
      "stateMutability": "nonpayable",
      "type": "function"
    }
  ],
  "bytecode": "0x60806040526040518060400160405280600a81526020017f44656d6f20546f6b656e00000000000000000000000000000000000000000000815250600090816100489190610615565b506040518060400160405280600381526020017f44544b00000000000000000000000000000000000000000000000000000000008152506001908161008d9190610615565b506012600260006101000a81548160ff021916908360ff1602179055503480156100b657600080fd5b5033600760006101000a81548173ffffffffffffffffffffffffffffffffffffffff021916908373ffffffffffffffffffffffffffffffffffffffff160217905550600060038190555061013b33600260009054906101000a900460ff1660ff16600a6101239190610849565b6103e86101309190610894565b6101ed60201b60201c565b60004690507f8b73c3c69bb8fe3d512ecc4cf759cc79239f7b179b0ffacaa9a75d522b39400f60006040516101709190610979565b60405180910390206040518060400160405280600181526020017f31000000000000000000000000000000000000000000000000000000000000008152508051906020012083306040516020016101cb9594939291906109f9565b6040516020818303038152906040528051906020012060088190555050610baa565b600760009054906101000a900473ffffffffffffffffffffffffffffffffffffffff1673ffffffffffffffffffffffffffffffffffffffff163373ffffffffffffffffffffffffffffffffffffffff161461027d576040517f08c379a000000000000000000000000000000000000000000000000000000000815260040161027490610acf565b60405180910390fd5b600073ffffffffffffffffffffffffffffffffffffffff168273ffffffffffffffffffffffffffffffffffffffff16036102ec576040517f08c379a00000000000000000000000000000000000000000000000000000000081526004016102e390610b3b565b60405180910390fd5b80600460008473ffffffffffffffffffffffffffffffffffffffff1673ffffffffffffffffffffffffffffffffffffffff168152602001908152602001600020600082825461033b9190610b5b565b9250508190555080600360008282546103549190610b5b565b925050819055508173ffffffffffffffffffffffffffffffffffffffff16600073ffffffffffffffffffffffffffffffffffffffff167fddf252ad1be2c89b69c2b068fc378daa952ba7f163c4a11628f55a4df523b3ef836040516103b99190610b8f565b60405180910390a35050565b600081519050919050565b7f4e487b7100000000000000000000000000000000000000000000000000000000600052604160045260246000fd5b7f4e487b7100000000000000000000000000000000000000000000000000000000600052602260045260246000fd5b6000600282049050600182168061044657607f821691505b602082108103610459576104586103ff565b5b50919050565b60008190508160005260206000209050919050565b60006020601f8301049050919050565b600082821b905092915050565b6000600883026104c17fffffffffffffffffffffffffffffffffffffffffffffffffffffffffffffffff82610484565b6104cb8683610484565b95508019841693508086168417925050509392505050565b6000819050919050565b6000819050919050565b600061051261050d610508846104e3565b6104ed565b6104e3565b9050919050565b6000819050919050565b61052c836104f7565b61054061053882610519565b848454610491565b825550505050565b600090565b610555610548565b610560818484610523565b505050565b5b818110156105845761057960008261054d565b600181019050610566565b5050565b601f8211156105c95761059a8161045f565b6105a384610474565b810160208510156105b2578190505b6105c66105be85610474565b830182610565565b50505b505050565b600082821c905092915050565b60006105ec600019846008026105ce565b1980831691505092915050565b600061060583836105db565b9150826002028217905092915050565b61061e826103c5565b67ffffffffffffffff811115610637576106366103d0565b5b610641825461042e565b61064c828285610588565b600060209050601f83116001811461067f576000841561066d578287015190505b61067785826105f9565b8655506106df565b601f19841661068d8661045f565b60005b828110156106b557848901518255600182019150602085019450602081019050610690565b868310156106d257848901516106ce601f8916826105db565b8355505b6001600288020188555050505b505050505050565b7f4e487b7100000000000000000000000000000000000000000000000000000000600052601160045260246000fd5b60008160011c9050919050565b6000808291508390505b600185111561076d57808604811115610749576107486106e7565b5b60018516156107585780820291505b808102905061076685610716565b945061072d565b94509492505050565b6000826107865760019050610842565b816107945760009050610842565b81600181146107aa57600281146107b4576107e3565b6001915050610842565b60ff8411156107c6576107c56106e7565b5b8360020a9150848211156107dd576107dc6106e7565b5b50610842565b5060208310610133831016604e8410600b84101617156108185782820a905083811115610813576108126106e7565b5b610842565b6108258484846001610723565b9250905081840481111561083c5761083b6106e7565b5b81810290505b9392505050565b6000610854826104e3565b915061085f836104e3565b925061088c7fffffffffffffffffffffffffffffffffffffffffffffffffffffffffffffffff8484610776565b905092915050565b600061089f826104e3565b91506108aa836104e3565b92508282026108b8816104e3565b915082820484148315176108cf576108ce6106e7565b5b5092915050565b600081905092915050565b60008190508160005260206000209050919050565b600081546109038161042e565b61090d81866108d6565b94506001821660008114610928576001811461093d57610970565b60ff1983168652811515820286019350610970565b610946856108e1565b60005b8381101561096857815481890152600182019150602081019050610949565b838801955050505b50505092915050565b600061098582846108f6565b915081905092915050565b6000819050919050565b6109a381610990565b82525050565b6109b2816104e3565b82525050565b600073ffffffffffffffffffffffffffffffffffffffff82169050919050565b60006109e3826109b8565b9050919050565b6109f3816109d8565b82525050565b600060a082019050610a0e600083018861099a565b610a1b602083018761099a565b610a28604083018661099a565b610a3560608301856109a9565b610a4260808301846109ea565b9695505050505050565b600082825260208201905092915050565b7f4f6e6c79206f776e65722063616e2063616c6c20746869732066756e6374696f60008201527f6e00000000000000000000000000000000000000000000000000000000000000602082015250565b6000610ab9602183610a4c565b9150610ac482610a5d565b604082019050919050565b60006020820190508181036000830152610ae881610aac565b9050919050565b7f43616e6e6f74206d696e7420746f207a65726f20616464726573730000000000600082015250565b6000610b25601b83610a4c565b9150610b3082610aef565b602082019050919050565b60006020820190508181036000830152610b5481610b18565b9050919050565b6000610b66826104e3565b9150610b71836104e3565b9250828201905080821115610b8957610b886106e7565b5b92915050565b6000602082019050610ba460008301846109a9565b92915050565b611ee080610bb96000396000f3fe608060405234801561001057600080fd5b50600436106100ff5760003560e01c806370a0823111610097578063a9059cbb11610066578063a9059cbb146102b2578063cc164e45146102e2578063dd62ed3e146102fe578063ffa1ad741461032e576100ff565b806370a08231146102165780637ecebe00146102465780638da5cb5b1461027657806395d89b4114610294576100ff565b806323b872dd116100d357806323b872dd1461018e578063313ce567146101be5780633644e515146101dc57806340c10f19146101fa576100ff565b8062bf26f41461010457806306fdde0314610122578063095ea7b31461014057806318160ddd14610170575b600080fd5b61010c61034c565b60405161011991906113cb565b60405180910390f35b61012a610370565b6040516101379190611476565b60405180910390f35b61015a60048036038101906101559190611540565b6103fe565b604051610167919061159b565b60405180910390f35b6101786104f0565b60405161018591906115c5565b60405180910390f35b6101a860048036038101906101a391906115e0565b6104f6565b6040516101b5919061159b565b60405180910390f35b6101c6610856565b6040516101d3919061164f565b60405180910390f35b6101e4610869565b6040516101f191906113cb565b60405180910390f35b610214600480360381019061020f9190611540565b61086f565b005b610230600480360381019061022b919061166a565b610a47565b60405161023d91906115c5565b60405180910390f35b610260600480360381019061025b919061166a565b610a5f565b60405161026d91906115c5565b60405180910390f35b61027e610a77565b60405161028b91906116a6565b60405180910390f35b61029c610a9d565b6040516102a99190611476565b60405180910390f35b6102cc60048036038101906102c79190611540565b610b2b565b6040516102d9919061159b565b60405180910390f35b6102fc60048036038101906102f791906117f6565b610d38565b005b6103186004803603810190610313919061188d565b611074565b60405161032591906115c5565b60405180910390f35b610336611099565b6040516103439190611476565b60405180910390f35b7f4144f681a2e4d6d2035dcbc0720f95d08cc1779083c71290e8a4bb4c1529f59e81565b6000805461037d906118fc565b80601f01602080910402602001604051908101604052809291908181526020018280546103a9906118fc565b80156103f65780601f106103cb576101008083540402835291602001916103f6565b820191906000526020600020905b8154815290600101906020018083116103d957829003601f168201915b505050505081565b600081600560003373ffffffffffffffffffffffffffffffffffffffff1673ffffffffffffffffffffffffffffffffffffffff16815260200190815260200160002060008573ffffffffffffffffffffffffffffffffffffffff1673ffffffffffffffffffffffffffffffffffffffff168152602001908152602001600020819055508273ffffffffffffffffffffffffffffffffffffffff163373ffffffffffffffffffffffffffffffffffffffff167f8c5be1e5ebec7d5bd14f71427d1e84f3dd0314c0f7b2291e5b200ac8c7c3b925846040516104de91906115c5565b60405180910390a36001905092915050565b60035481565b60008073ffffffffffffffffffffffffffffffffffffffff168373ffffffffffffffffffffffffffffffffffffffff1603610566576040517f08c379a000000000000000000000000000000000000000000000000000000000815260040161055d90611979565b60405180910390fd5b81600460008673ffffffffffffffffffffffffffffffffffffffff1673ffffffffffffffffffffffffffffffffffffffff1681526020019081526020016000205410156105e8576040517f08c379a00000000000000000000000000000000000000000000000000000000081526004016105df906119e5565b60405180910390fd5b81600560008673ffffffffffffffffffffffffffffffffffffffff1673ffffffffffffffffffffffffffffffffffffffff16815260200190815260200160002060003373ffffffffffffffffffffffffffffffffffffffff1673ffffffffffffffffffffffffffffffffffffffff1681526020019081526020016000205410156106a7576040517f08c379a000000000000000000000000000000000000000000000000000000000815260040161069e90611a51565b60405180910390fd5b81600560008673ffffffffffffffffffffffffffffffffffffffff1673ffffffffffffffffffffffffffffffffffffffff16815260200190815260200160002060003373ffffffffffffffffffffffffffffffffffffffff1673ffffffffffffffffffffffffffffffffffffffff16815260200190815260200160002060008282546107339190611aa0565b9250508190555081600460008673ffffffffffffffffffffffffffffffffffffffff1673ffffffffffffffffffffffffffffffffffffffff16815260200190815260200160002060008282546107899190611aa0565b9250508190555081600460008573ffffffffffffffffffffffffffffffffffffffff1673ffffffffffffffffffffffffffffffffffffffff16815260200190815260200160002060008282546107df9190611ad4565b925050819055508273ffffffffffffffffffffffffffffffffffffffff168473ffffffffffffffffffffffffffffffffffffffff167fddf252ad1be2c89b69c2b068fc378daa952ba7f163c4a11628f55a4df523b3ef8460405161084391906115c5565b60405180910390a3600190509392505050565b600260009054906101000a900460ff1681565b60085481565b600760009054906101000a900473ffffffffffffffffffffffffffffffffffffffff1673ffffffffffffffffffffffffffffffffffffffff163373ffffffffffffffffffffffffffffffffffffffff16146108ff576040517f08c379a00000000000000000000000000000000000000000000000000000000081526004016108f690611b7a565b60405180910390fd5b600073ffffffffffffffffffffffffffffffffffffffff168273ffffffffffffffffffffffffffffffffffffffff160361096e576040517f08c379a000000000000000000000000000000000000000000000000000000000815260040161096590611be6565b60405180910390fd5b80600460008473ffffffffffffffffffffffffffffffffffffffff1673ffffffffffffffffffffffffffffffffffffffff16815260200190815260200160002060008282546109bd9190611ad4565b9250508190555080600360008282546109d69190611ad4565b925050819055508173ffffffffffffffffffffffffffffffffffffffff16600073ffffffffffffffffffffffffffffffffffffffff167fddf252ad1be2c89b69c2b068fc378daa952ba7f163c4a11628f55a4df523b3ef83604051610a3b91906115c5565b60405180910390a35050565b60046020528060005260406000206000915090505481565b60066020528060005260406000206000915090505481565b600760009054906101000a900473ffffffffffffffffffffffffffffffffffffffff1681565b60018054610aaa906118fc565b80601f0160208091040260200160405190810160405280929190818152602001828054610ad6906118fc565b8015610b235780601f10610af857610100808354040283529160200191610b23565b820191906000526020600020905b815481529060010190602001808311610b0657829003601f168201915b505050505081565b60008073ffffffffffffffffffffffffffffffffffffffff168373ffffffffffffffffffffffffffffffffffffffff1603610b9b576040517f08c379a0000000000000000000000000000000000000000000000000000000008152600401610b9290611979565b60405180910390fd5b81600460003373ffffffffffffffffffffffffffffffffffffffff1673ffffffffffffffffffffffffffffffffffffffff168152602001908152602001600020541015610c1d576040517f08c379a0000000000000000000000000000000000000000000000000000000008152600401610c14906119e5565b60405180910390fd5b81600460003373ffffffffffffffffffffffffffffffffffffffff1673ffffffffffffffffffffffffffffffffffffffff1681526020019081526020016000206000828254610c6c9190611aa0565b9250508190555081600460008573ffffffffffffffffffffffffffffffffffffffff1673ffffffffffffffffffffffffffffffffffffffff1681526020019081526020016000206000828254610cc29190611ad4565b925050819055508273ffffffffffffffffffffffffffffffffffffffff163373ffffffffffffffffffffffffffffffffffffffff167fddf252ad1be2c89b69c2b068fc378daa952ba7f163c4a11628f55a4df523b3ef84604051610d2691906115c5565b60405180910390a36001905092915050565b81421115610d7b576040517f08c379a0000000000000000000000000000000000000000000000000000000008152600401610d7290611c52565b60405180910390fd5b60007f4144f681a2e4d6d2035dcbc0720f95d08cc1779083c71290e8a4bb4c1529f59e868686600660008b73ffffffffffffffffffffffffffffffffffffffff1673ffffffffffffffffffffffffffffffffffffffff1681526020019081526020016000206000815480929190610df190611c72565b9190505587604051602001610e0b96959493929190611cba565b604051602081830303815290604052805190602001209050600060085482604051602001610e3a929190611d93565b6040516020818303038152906040528051906020012090506000610e6784836110d290919063ffffffff16565b90508773ffffffffffffffffffffffffffffffffffffffff168173ffffffffffffffffffffffffffffffffffffffff1614610ed7576040517f08c379a0000000000000000000000000000000000000000000000000000000008152600401610ece90611e16565b60405180910390fd5b85600460008a73ffffffffffffffffffffffffffffffffffffffff1673ffffffffffffffffffffffffffffffffffffffff168152602001908152602001600020541015610f59576040517f08c379a0000000000000000000000000000000000000000000000000000000008152600401610f50906119e5565b60405180910390fd5b85600460008a73ffffffffffffffffffffffffffffffffffffffff1673ffffffffffffffffffffffffffffffffffffffff1681526020019081526020016000206000828254610fa89190611aa0565b9250508190555085600460008973ffffffffffffffffffffffffffffffffffffffff1673ffffffffffffffffffffffffffffffffffffffff1681526020019081526020016000206000828254610ffe9190611ad4565b925050819055508673ffffffffffffffffffffffffffffffffffffffff168873ffffffffffffffffffffffffffffffffffffffff167fddf252ad1be2c89b69c2b068fc378daa952ba7f163c4a11628f55a4df523b3ef8860405161106291906115c5565b60405180910390a35050505050505050565b6005602052816000526040600020602052806000526040600020600091509150505481565b6040518060400160405280600181526020017f310000000000000000000000000000000000000000000000000000000000000081525081565b6000806000806110e286866110fe565b9250925092506110f2828261115a565b82935050505092915050565b600080600060418451036111435760008060006020870151925060408701519150606087015160001a9050611135888285856112be565b955095509550505050611153565b60006002855160001b9250925092505b9250925092565b6000600381111561116e5761116d611e36565b5b82600381111561118157611180611e36565b5b03156112ba576001600381111561119b5761119a611e36565b5b8260038111156111ae576111ad611e36565b5b036111e5576040517ff645eedf00000000000000000000000000000000000000000000000000000000815260040160405180910390fd5b600260038111156111f9576111f8611e36565b5b82600381111561120c5761120b611e36565b5b03611251578060001c6040517ffce698f700000000000000000000000000000000000000000000000000000000815260040161124891906115c5565b60405180910390fd5b60038081111561126457611263611e36565b5b82600381111561127757611276611e36565b5b036112b957806040517fd78bce0c0000000000000000000000000000000000000000000000000000000081526004016112b091906113cb565b60405180910390fd5b5b5050565b60008060007f7fffffffffffffffffffffffffffffff5d576e7357a4501ddfe92f46681b20a08460001c11156112fe5760006003859250925092506113a8565b6000600188888888604051600081526020016040526040516113239493929190611e65565b6020604051602081039080840390855afa158015611345573d6000803e3d6000fd5b505050602060405103519050600073ffffffffffffffffffffffffffffffffffffffff168173ffffffffffffffffffffffffffffffffffffffff160361139957600060016000801b935093509350506113a8565b8060008060001b935093509350505b9450945094915050565b6000819050919050565b6113c5816113b2565b82525050565b60006020820190506113e060008301846113bc565b92915050565b600081519050919050565b600082825260208201905092915050565b60005b83811015611420578082015181840152602081019050611405565b60008484015250505050565b6000601f19601f8301169050919050565b6000611448826113e6565b61145281856113f1565b9350611462818560208601611402565b61146b8161142c565b840191505092915050565b60006020820190508181036000830152611490818461143d565b905092915050565b6000604051905090565b600080fd5b600080fd5b600073ffffffffffffffffffffffffffffffffffffffff82169050919050565b60006114d7826114ac565b9050919050565b6114e7816114cc565b81146114f257600080fd5b50565b600081359050611504816114de565b92915050565b6000819050919050565b61151d8161150a565b811461152857600080fd5b50565b60008135905061153a81611514565b92915050565b60008060408385031215611557576115566114a2565b5b6000611565858286016114f5565b92505060206115768582860161152b565b9150509250929050565b60008115159050919050565b61159581611580565b82525050565b60006020820190506115b0600083018461158c565b92915050565b6115bf8161150a565b82525050565b60006020820190506115da60008301846115b6565b92915050565b6000806000606084860312156115f9576115f86114a2565b5b6000611607868287016114f5565b9350506020611618868287016114f5565b92505060406116298682870161152b565b9150509250925092565b600060ff82169050919050565b61164981611633565b82525050565b60006020820190506116646000830184611640565b92915050565b6000602082840312156116805761167f6114a2565b5b600061168e848285016114f5565b91505092915050565b6116a0816114cc565b82525050565b60006020820190506116bb6000830184611697565b92915050565b600080fd5b600080fd5b7f4e487b7100000000000000000000000000000000000000000000000000000000600052604160045260246000fd5b6117038261142c565b810181811067ffffffffffffffff82111715611722576117216116cb565b5b80604052505050565b6000611735611498565b905061174182826116fa565b919050565b600067ffffffffffffffff821115611761576117606116cb565b5b61176a8261142c565b9050602081019050919050565b82818337600083830152505050565b600061179961179484611746565b61172b565b9050828152602081018484840111156117b5576117b46116c6565b5b6117c0848285611777565b509392505050565b600082601f8301126117dd576117dc6116c1565b5b81356117ed848260208601611786565b91505092915050565b600080600080600060a08688031215611812576118116114a2565b5b6000611820888289016114f5565b9550506020611831888289016114f5565b94505060406118428882890161152b565b93505060606118538882890161152b565b925050608086013567ffffffffffffffff811115611874576118736114a7565b5b611880888289016117c8565b9150509295509295909350565b600080604083850312156118a4576118a36114a2565b5b60006118b2858286016114f5565b92505060206118c3858286016114f5565b9150509250929050565b7f4e487b7100000000000000000000000000000000000000000000000000000000600052602260045260246000fd5b6000600282049050600182168061191457607f821691505b602082108103611927576119266118cd565b5b50919050565b7f496e76616c696420726563697069656e74000000000000000000000000000000600082015250565b60006119636011836113f1565b915061196e8261192d565b602082019050919050565b6000602082019050818103600083015261199281611956565b9050919050565b7f496e73756666696369656e742062616c616e6365000000000000000000000000600082015250565b60006119cf6014836113f1565b91506119da82611999565b602082019050919050565b600060208201905081810360008301526119fe816119c2565b9050919050565b7f416c6c6f77616e63652065786365656465640000000000000000000000000000600082015250565b6000611a3b6012836113f1565b9150611a4682611a05565b602082019050919050565b60006020820190508181036000830152611a6a81611a2e565b9050919050565b7f4e487b7100000000000000000000000000000000000000000000000000000000600052601160045260246000fd5b6000611aab8261150a565b9150611ab68361150a565b9250828203905081811115611ace57611acd611a71565b5b92915050565b6000611adf8261150a565b9150611aea8361150a565b9250828201905080821115611b0257611b01611a71565b5b92915050565b7f4f6e6c79206f776e65722063616e2063616c6c20746869732066756e6374696f60008201527f6e00000000000000000000000000000000000000000000000000000000000000602082015250565b6000611b646021836113f1565b9150611b6f82611b08565b604082019050919050565b60006020820190508181036000830152611b9381611b57565b9050919050565b7f43616e6e6f74206d696e7420746f207a65726f20616464726573730000000000600082015250565b6000611bd0601b836113f1565b9150611bdb82611b9a565b602082019050919050565b60006020820190508181036000830152611bff81611bc3565b9050919050565b7f4578706972656400000000000000000000000000000000000000000000000000600082015250565b6000611c3c6007836113f1565b9150611c4782611c06565b602082019050919050565b60006020820190508181036000830152611c6b81611c2f565b9050919050565b6000611c7d8261150a565b91507fffffffffffffffffffffffffffffffffffffffffffffffffffffffffffffffff8203611caf57611cae611a71565b5b600182019050919050565b600060c082019050611ccf60008301896113bc565b611cdc6020830188611697565b611ce96040830187611697565b611cf660608301866115b6565b611d0360808301856115b6565b611d1060a08301846115b6565b979650505050505050565b600081905092915050565b7f1901000000000000000000000000000000000000000000000000000000000000600082015250565b6000611d5c600283611d1b565b9150611d6782611d26565b600282019050919050565b6000819050919050565b611d8d611d88826113b2565b611d72565b82525050565b6000611d9e82611d4f565b9150611daa8285611d7c565b602082019150611dba8284611d7c565b6020820191508190509392505050565b7f496e76616c6964207369676e6174757265000000000000000000000000000000600082015250565b6000611e006011836113f1565b9150611e0b82611dca565b602082019050919050565b60006020820190508181036000830152611e2f81611df3565b9050919050565b7f4e487b7100000000000000000000000000000000000000000000000000000000600052602160045260246000fd5b6000608082019050611e7a60008301876113bc565b611e876020830186611640565b611e9460408301856113bc565b611ea160608301846113bc565b9594505050505056fea2646970667358221220acdbc46957534e301adf91e6b241d49e770fe5cca7c57f024fc823e9d08f412b64736f6c634300081c0033",
  "linkReferences": {},
  "deployedLinkReferences": {}
}